{
  "contractName": "AtlanticId",
  "abi": [
    {
      "inputs": [],
      "stateMutability": "nonpayable",
      "type": "constructor"
    },
    {
      "anonymous": false,
      "inputs": [
        {
          "indexed": true,
          "internalType": "address",
          "name": "owner",
          "type": "address"
        },
        {
          "indexed": true,
          "internalType": "address",
          "name": "approved",
          "type": "address"
        },
        {
          "indexed": true,
          "internalType": "uint256",
          "name": "tokenId",
          "type": "uint256"
        }
      ],
      "name": "Approval",
      "type": "event"
    },
    {
      "anonymous": false,
      "inputs": [
        {
          "indexed": true,
          "internalType": "address",
          "name": "owner",
          "type": "address"
        },
        {
          "indexed": true,
          "internalType": "address",
          "name": "operator",
          "type": "address"
        },
        {
          "indexed": false,
          "internalType": "bool",
          "name": "approved",
          "type": "bool"
        }
      ],
      "name": "ApprovalForAll",
      "type": "event"
    },
    {
      "anonymous": false,
      "inputs": [
        {
          "indexed": false,
          "internalType": "uint256",
          "name": "tokenId",
          "type": "uint256"
        },
        {
          "indexed": false,
          "internalType": "uint256",
          "name": "timestamp",
          "type": "uint256"
        },
        {
          "indexed": false,
          "internalType": "uint256",
          "name": "yearExpired",
          "type": "uint256"
        }
      ],
      "name": "Mint",
      "type": "event"
    },
    {
      "anonymous": false,
      "inputs": [
        {
          "indexed": false,
          "internalType": "address",
          "name": "account",
          "type": "address"
        }
      ],
      "name": "Paused",
      "type": "event"
    },
    {
      "anonymous": false,
      "inputs": [
        {
          "indexed": true,
          "internalType": "bytes32",
          "name": "role",
          "type": "bytes32"
        },
        {
          "indexed": true,
          "internalType": "bytes32",
          "name": "previousAdminRole",
          "type": "bytes32"
        },
        {
          "indexed": true,
          "internalType": "bytes32",
          "name": "newAdminRole",
          "type": "bytes32"
        }
      ],
      "name": "RoleAdminChanged",
      "type": "event"
    },
    {
      "anonymous": false,
      "inputs": [
        {
          "indexed": true,
          "internalType": "bytes32",
          "name": "role",
          "type": "bytes32"
        },
        {
          "indexed": true,
          "internalType": "address",
          "name": "account",
          "type": "address"
        },
        {
          "indexed": true,
          "internalType": "address",
          "name": "sender",
          "type": "address"
        }
      ],
      "name": "RoleGranted",
      "type": "event"
    },
    {
      "anonymous": false,
      "inputs": [
        {
          "indexed": true,
          "internalType": "bytes32",
          "name": "role",
          "type": "bytes32"
        },
        {
          "indexed": true,
          "internalType": "address",
          "name": "account",
          "type": "address"
        },
        {
          "indexed": true,
          "internalType": "address",
          "name": "sender",
          "type": "address"
        }
      ],
      "name": "RoleRevoked",
      "type": "event"
    },
    {
      "anonymous": false,
      "inputs": [
        {
          "indexed": true,
          "internalType": "address",
          "name": "from",
          "type": "address"
        },
        {
          "indexed": true,
          "internalType": "address",
          "name": "to",
          "type": "address"
        },
        {
          "indexed": true,
          "internalType": "uint256",
          "name": "tokenId",
          "type": "uint256"
        }
      ],
      "name": "Transfer",
      "type": "event"
    },
    {
      "anonymous": false,
      "inputs": [
        {
          "indexed": false,
          "internalType": "address",
          "name": "account",
          "type": "address"
        }
      ],
      "name": "Unpaused",
      "type": "event"
    },
    {
      "inputs": [],
      "name": "BURNER_ROLE",
      "outputs": [
        {
          "internalType": "bytes32",
          "name": "",
          "type": "bytes32"
        }
      ],
      "stateMutability": "view",
      "type": "function",
      "constant": true
    },
    {
      "inputs": [],
      "name": "DEFAULT_ADMIN_ROLE",
      "outputs": [
        {
          "internalType": "bytes32",
          "name": "",
          "type": "bytes32"
        }
      ],
      "stateMutability": "view",
      "type": "function",
      "constant": true
    },
    {
      "inputs": [],
      "name": "MINTER_ROLE",
      "outputs": [
        {
          "internalType": "bytes32",
          "name": "",
          "type": "bytes32"
        }
      ],
      "stateMutability": "view",
      "type": "function",
      "constant": true
    },
    {
      "inputs": [],
      "name": "PAUSER_ROLE",
      "outputs": [
        {
          "internalType": "bytes32",
          "name": "",
          "type": "bytes32"
        }
      ],
      "stateMutability": "view",
      "type": "function",
      "constant": true
    },
    {
      "inputs": [],
      "name": "TRANSFER_ROLE",
      "outputs": [
        {
          "internalType": "bytes32",
          "name": "",
          "type": "bytes32"
        }
      ],
      "stateMutability": "view",
      "type": "function",
      "constant": true
    },
    {
      "inputs": [
        {
          "internalType": "address",
          "name": "to",
          "type": "address"
        },
        {
          "internalType": "uint256",
          "name": "tokenId",
          "type": "uint256"
        }
      ],
      "name": "approve",
      "outputs": [],
      "stateMutability": "nonpayable",
      "type": "function"
    },
    {
      "inputs": [
        {
          "internalType": "address",
          "name": "owner",
          "type": "address"
        }
      ],
      "name": "balanceOf",
      "outputs": [
        {
          "internalType": "uint256",
          "name": "",
          "type": "uint256"
        }
      ],
      "stateMutability": "view",
      "type": "function",
      "constant": true
    },
    {
      "inputs": [
        {
          "internalType": "uint256",
          "name": "tokenId",
          "type": "uint256"
        }
      ],
      "name": "burn",
      "outputs": [],
      "stateMutability": "nonpayable",
      "type": "function"
    },
    {
      "inputs": [
        {
          "internalType": "uint256",
          "name": "tokenId",
          "type": "uint256"
        }
      ],
      "name": "getApproved",
      "outputs": [
        {
          "internalType": "address",
          "name": "",
          "type": "address"
        }
      ],
      "stateMutability": "view",
      "type": "function",
      "constant": true
    },
    {
      "inputs": [
        {
          "internalType": "bytes32",
          "name": "role",
          "type": "bytes32"
        }
      ],
      "name": "getRoleAdmin",
      "outputs": [
        {
          "internalType": "bytes32",
          "name": "",
          "type": "bytes32"
        }
      ],
      "stateMutability": "view",
      "type": "function",
      "constant": true
    },
    {
      "inputs": [
        {
          "internalType": "bytes32",
          "name": "role",
          "type": "bytes32"
        },
        {
          "internalType": "uint256",
          "name": "index",
          "type": "uint256"
        }
      ],
      "name": "getRoleMember",
      "outputs": [
        {
          "internalType": "address",
          "name": "",
          "type": "address"
        }
      ],
      "stateMutability": "view",
      "type": "function",
      "constant": true
    },
    {
      "inputs": [
        {
          "internalType": "bytes32",
          "name": "role",
          "type": "bytes32"
        }
      ],
      "name": "getRoleMemberCount",
      "outputs": [
        {
          "internalType": "uint256",
          "name": "",
          "type": "uint256"
        }
      ],
      "stateMutability": "view",
      "type": "function",
      "constant": true
    },
    {
      "inputs": [
        {
          "internalType": "bytes32",
          "name": "role",
          "type": "bytes32"
        },
        {
          "internalType": "address",
          "name": "account",
          "type": "address"
        }
      ],
      "name": "grantRole",
      "outputs": [],
      "stateMutability": "nonpayable",
      "type": "function"
    },
    {
      "inputs": [
        {
          "internalType": "bytes32",
          "name": "role",
          "type": "bytes32"
        },
        {
          "internalType": "address",
          "name": "account",
          "type": "address"
        }
      ],
      "name": "hasRole",
      "outputs": [
        {
          "internalType": "bool",
          "name": "",
          "type": "bool"
        }
      ],
      "stateMutability": "view",
      "type": "function",
      "constant": true
    },
    {
      "inputs": [
        {
          "internalType": "address",
          "name": "owner",
          "type": "address"
        },
        {
          "internalType": "address",
          "name": "operator",
          "type": "address"
        }
      ],
      "name": "isApprovedForAll",
      "outputs": [
        {
          "internalType": "bool",
          "name": "",
          "type": "bool"
        }
      ],
      "stateMutability": "view",
      "type": "function",
      "constant": true
    },
    {
      "inputs": [],
      "name": "name",
      "outputs": [
        {
          "internalType": "string",
          "name": "",
          "type": "string"
        }
      ],
      "stateMutability": "view",
      "type": "function",
      "constant": true
    },
    {
      "inputs": [
        {
          "internalType": "uint256",
          "name": "tokenId",
          "type": "uint256"
        }
      ],
      "name": "ownerOf",
      "outputs": [
        {
          "internalType": "address",
          "name": "",
          "type": "address"
        }
      ],
      "stateMutability": "view",
      "type": "function",
      "constant": true
    },
    {
      "inputs": [],
      "name": "paused",
      "outputs": [
        {
          "internalType": "bool",
          "name": "",
          "type": "bool"
        }
      ],
      "stateMutability": "view",
      "type": "function",
      "constant": true
    },
    {
      "inputs": [
        {
          "internalType": "bytes32",
          "name": "role",
          "type": "bytes32"
        },
        {
          "internalType": "address",
          "name": "account",
          "type": "address"
        }
      ],
      "name": "renounceRole",
      "outputs": [],
      "stateMutability": "nonpayable",
      "type": "function"
    },
    {
      "inputs": [
        {
          "internalType": "bytes32",
          "name": "role",
          "type": "bytes32"
        },
        {
          "internalType": "address",
          "name": "account",
          "type": "address"
        }
      ],
      "name": "revokeRole",
      "outputs": [],
      "stateMutability": "nonpayable",
      "type": "function"
    },
    {
      "inputs": [
        {
          "internalType": "address",
          "name": "operator",
          "type": "address"
        },
        {
          "internalType": "bool",
          "name": "approved",
          "type": "bool"
        }
      ],
      "name": "setApprovalForAll",
      "outputs": [],
      "stateMutability": "nonpayable",
      "type": "function"
    },
    {
      "inputs": [],
      "name": "symbol",
      "outputs": [
        {
          "internalType": "string",
          "name": "",
          "type": "string"
        }
      ],
      "stateMutability": "view",
      "type": "function",
      "constant": true
    },
    {
      "inputs": [
        {
          "internalType": "uint256",
          "name": "index",
          "type": "uint256"
        }
      ],
      "name": "tokenByIndex",
      "outputs": [
        {
          "internalType": "uint256",
          "name": "",
          "type": "uint256"
        }
      ],
      "stateMutability": "view",
      "type": "function",
      "constant": true
    },
    {
      "inputs": [
        {
          "internalType": "address",
          "name": "owner",
          "type": "address"
        },
        {
          "internalType": "uint256",
          "name": "index",
          "type": "uint256"
        }
      ],
      "name": "tokenOfOwnerByIndex",
      "outputs": [
        {
          "internalType": "uint256",
          "name": "",
          "type": "uint256"
        }
      ],
      "stateMutability": "view",
      "type": "function",
      "constant": true
    },
    {
      "inputs": [
        {
          "internalType": "uint256",
          "name": "tokenId",
          "type": "uint256"
        }
      ],
      "name": "tokenURI",
      "outputs": [
        {
          "internalType": "string",
          "name": "",
          "type": "string"
        }
      ],
      "stateMutability": "view",
      "type": "function",
      "constant": true
    },
    {
      "inputs": [],
      "name": "totalSupply",
      "outputs": [
        {
          "internalType": "uint256",
          "name": "",
          "type": "uint256"
        }
      ],
      "stateMutability": "view",
      "type": "function",
      "constant": true
    },
    {
      "inputs": [
        {
          "internalType": "bytes4",
          "name": "interfaceId",
          "type": "bytes4"
        }
      ],
      "name": "supportsInterface",
      "outputs": [
        {
          "internalType": "bool",
          "name": "",
          "type": "bool"
        }
      ],
      "stateMutability": "view",
      "type": "function",
      "constant": true
    },
    {
      "inputs": [],
      "name": "unpause",
      "outputs": [],
      "stateMutability": "nonpayable",
      "type": "function"
    },
    {
      "inputs": [
        {
          "internalType": "address",
          "name": "from",
          "type": "address"
        },
        {
          "internalType": "address",
          "name": "to",
          "type": "address"
        },
        {
          "internalType": "uint256",
          "name": "tokenId",
          "type": "uint256"
        }
      ],
      "name": "transferFrom",
      "outputs": [],
      "stateMutability": "nonpayable",
      "type": "function"
    },
    {
      "inputs": [
        {
          "internalType": "address",
          "name": "from",
          "type": "address"
        },
        {
          "internalType": "address",
          "name": "to",
          "type": "address"
        },
        {
          "internalType": "uint256",
          "name": "tokenId",
          "type": "uint256"
        }
      ],
      "name": "safeTransferFrom",
      "outputs": [],
      "stateMutability": "nonpayable",
      "type": "function"
    },
    {
      "inputs": [
        {
          "internalType": "address",
          "name": "from",
          "type": "address"
        },
        {
          "internalType": "address",
          "name": "to",
          "type": "address"
        },
        {
          "internalType": "uint256",
          "name": "tokenId",
          "type": "uint256"
        },
        {
          "internalType": "bytes",
          "name": "_data",
          "type": "bytes"
        }
      ],
      "name": "safeTransferFrom",
      "outputs": [],
      "stateMutability": "nonpayable",
      "type": "function"
    },
    {
      "inputs": [
        {
          "internalType": "string",
          "name": "_key",
          "type": "string"
        },
        {
          "internalType": "address",
          "name": "from",
          "type": "address"
        }
      ],
      "name": "approveMint",
      "outputs": [],
      "stateMutability": "nonpayable",
      "type": "function"
    },
    {
      "inputs": [
        {
          "internalType": "string",
          "name": "_ens",
          "type": "string"
        },
        {
          "internalType": "string",
          "name": "_uid",
          "type": "string"
        },
        {
          "internalType": "string",
          "name": "_exchange",
          "type": "string"
        },
        {
          "internalType": "string",
          "name": "_key",
          "type": "string"
        }
      ],
      "name": "mint",
      "outputs": [],
      "stateMutability": "nonpayable",
      "type": "function"
    },
    {
      "inputs": [
        {
          "internalType": "uint256",
          "name": "_tokenId",
          "type": "uint256"
        }
      ],
      "name": "getUid",
      "outputs": [
        {
          "internalType": "string",
          "name": "",
          "type": "string"
        }
      ],
      "stateMutability": "view",
      "type": "function",
      "constant": true
    },
    {
      "inputs": [
        {
          "internalType": "uint256",
          "name": "_tokenId",
          "type": "uint256"
        }
      ],
      "name": "getEns",
      "outputs": [
        {
          "internalType": "string",
          "name": "",
          "type": "string"
        }
      ],
      "stateMutability": "view",
      "type": "function",
      "constant": true
    },
    {
      "inputs": [
        {
          "internalType": "uint256",
          "name": "_tokenId",
          "type": "uint256"
        }
      ],
      "name": "getExchange",
      "outputs": [
        {
          "internalType": "string",
          "name": "",
          "type": "string"
        }
      ],
      "stateMutability": "view",
      "type": "function",
      "constant": true
    },
    {
      "inputs": [
        {
          "internalType": "uint256",
          "name": "_tokenId",
          "type": "uint256"
        }
      ],
      "name": "getExpry",
      "outputs": [
        {
          "internalType": "uint8",
          "name": "day",
          "type": "uint8"
        },
        {
          "internalType": "uint8",
          "name": "month",
          "type": "uint8"
        },
        {
          "internalType": "uint16",
          "name": "year",
          "type": "uint16"
        }
      ],
      "stateMutability": "view",
      "type": "function",
      "constant": true
    },
    {
      "inputs": [
        {
          "internalType": "uint256",
          "name": "_tokenId",
          "type": "uint256"
        }
      ],
      "name": "isValidAid",
      "outputs": [
        {
          "internalType": "bool",
          "name": "",
          "type": "bool"
        }
      ],
      "stateMutability": "view",
      "type": "function",
      "constant": true
    }
  ],
  "bytecode": "0x60806040523480156200001157600080fd5b50604080518082018252600a81527f41746c616e74696349640000000000000000000000000000000000000000000060208083019182528351808501909452600384527f41494400000000000000000000000000000000000000000000000000000000009084015281519192916200008c91600291620003a5565b508051620000a2906003906020840190620003a5565b5050600c805460ff1916905550620000c2640100000000620001e3810204565b600e8054600160a060020a031916600160a060020a0392909216918217905562000117907f9f2df0fed2c77648de5860a4cc508cd0818c85b8b8a1ab4ceeef8d981c8956a690640100000000620001e7810204565b600e5462000159907f65d7a28e3265b37a6474929f336521b332c1681b933f6cb9f3376673440d862a90600160a060020a0316640100000000620001e7810204565b600e546200019b907f3c11d16cbaffd01df69ce1c404f6340ee057498f5f00246190ea54220576a84890600160a060020a0316640100000000620001e7810204565b600e54620001dd907f8502233096d909befbda0999bb8ea2f3a6be3c138b9fbf003752a4c8bce86f6c90600160a060020a0316640100000000620001e7810204565b620004a1565b3390565b620001fc828264010000000062000200810204565b5050565b6200021a828264010000000062001c976200024782021704565b600082815260016020526040902062000242908264010000000062001d1b620002e382021704565b505050565b6200025c82826401000000006200030c810204565b620001fc57600082815260208181526040808320600160a060020a03851684529091529020805460ff191660011790556200029f640100000000620001e3810204565b600160a060020a031681600160a060020a0316837f2f8788117e7eff1d82e926ec794901d17c78024a50270940304540a733656f0d60405160405180910390a45050565b60006200030383600160a060020a03841664010000000062000335810204565b90505b92915050565b600091825260208281526040808420600160a060020a0393909316845291905290205460ff1690565b60006200034c83836401000000006200038d810204565b620003845750815460018181018455600084815260208082209093018490558454848252828601909352604090209190915562000306565b50600062000306565b60009081526001919091016020526040902054151590565b828054620003b3906200044b565b90600052602060002090601f016020900481019282620003d7576000855562000422565b82601f10620003f257805160ff191683800117855562000422565b8280016001018555821562000422579182015b828111156200042257825182559160200191906001019062000405565b506200043092915062000434565b5090565b5b8082111562000430576000815560010162000435565b6002810460018216806200046057607f821691505b602082108114156200049b577f4e487b7100000000000000000000000000000000000000000000000000000000600052602260045260246000fd5b50919050565b613e2080620004b16000396000f3fe608060405234801561001057600080fd5b506004361061024f576000357c0100000000000000000000000000000000000000000000000000000000900480635c975abb1161014d578063a22cb465116100d5578063d547741f11610099578063d547741f1461053e578063de9a62c814610551578063e63ab1e914610564578063e985e9c51461058b578063eb03b578146105c757600080fd5b8063a22cb465146104cb578063b88d4fde146104de578063c87b56dd146104f1578063ca15c87314610504578063d53913931461051757600080fd5b806378b51d531161011c57806378b51d53146104825780639010d07c1461049557806391d14854146104a857806395d89b41146104bb578063a217fddf146104c357600080fd5b80635c975abb1461043e5780636352211e14610449578063657d2adc1461045c57806370a082311461046f57600080fd5b8063248a9ca3116101db57806336568abe1161019f57806336568abe146103ea5780633f4ba83a146103fd57806342842e0e1461040557806342966c68146104185780634f6ccce71461042b57600080fd5b8063248a9ca314610343578063282c51f3146103665780632eeb78ce1461038d5780632f2ff15d146103c45780632f745c59146103d757600080fd5b8063095ea7b311610222578063095ea7b3146102d15780630b9d5847146102e457806318160ddd146102f7578063206b60f91461030957806323b872dd1461033057600080fd5b806301ffc9a71461025457806302341c711461027c57806306fdde0314610291578063081812fc146102a6575b600080fd5b61026761026236600461357d565b6105da565b60405190151581526020015b60405180910390f35b61028f61028a366004613649565b6105eb565b005b6102996108fe565b604051610273919061374e565b6102b96102b4366004613761565b610990565b604051600160a060020a039091168152602001610273565b61028f6102df366004613796565b610a2c565b6102996102f2366004613761565b610b64565b600a545b604051908152602001610273565b6102fb7f8502233096d909befbda0999bb8ea2f3a6be3c138b9fbf003752a4c8bce86f6c81565b61028f61033e3660046137c0565b610c2f565b6102fb610351366004613761565b60009081526020819052604090206001015490565b6102fb7f3c11d16cbaffd01df69ce1c404f6340ee057498f5f00246190ea54220576a84881565b6103a061039b366004613761565b610c70565b6040805160ff948516815293909216602084015261ffff1690820152606001610273565b61028f6103d23660046137fc565b610f12565b6102fb6103e5366004613796565b610f38565b61028f6103f83660046137fc565b610fe3565b61028f611072565b61028f6104133660046137c0565b61111d565b61028f610426366004613761565b611138565b6102fb610439366004613761565b6111c3565b600c5460ff16610267565b6102b9610457366004613761565b61126a565b61026761046a366004613761565b6112f8565b6102fb61047d366004613828565b6117f5565b61028f610490366004613843565b611892565b6102b96104a3366004613888565b611980565b6102676104b63660046137fc565b61199f565b6102996119c8565b6102fb600081565b61028f6104d93660046138aa565b6119d7565b61028f6104ec3660046138e6565b6119e2565b6102996104ff366004613761565b611a25565b6102fb610512366004613761565b611b00565b6102fb7f9f2df0fed2c77648de5860a4cc508cd0818c85b8b8a1ab4ceeef8d981c8956a681565b61028f61054c3660046137fc565b611b17565b61029961055f366004613761565b611b3d565b6102fb7f65d7a28e3265b37a6474929f336521b332c1681b933f6cb9f3376673440d862a81565b610267610599366004613956565b600160a060020a03918216600090815260076020908152604080832093909416825291909152205460ff1690565b6102996105d5366004613761565b611c51565b60006105e582611d30565b92915050565b3381806040516020016105fe9190613980565b60408051601f198184030181528282528051602091820120600160a060020a03861660009081526012835292909220919261063a9291016139da565b60405160208183030381529060405280519060200120141561088057426000610662600f5490565b9050600061066f83611d6e565b805190915061067f906001613a92565b61ffff1681526040805160a0810182528a8152602081018a90529081018890526060810183905260808101829052601160006106ba600f5490565b81526020808201929092526040016000208251805191926106e092849290910190613498565b5060208281015180516106f99260018501920190613498565b5060408201518051610715916002840191602090910190613498565b50606082810151600383015560809283015180516004909301805460208301516040840151948401519684015160a085015160c09095015161ffff90971662ffffff19909316929092176201000060ff928316021764ffff000000191663010000009582169590950264ff00000000191694909417640100000000968516969096029590951766ffff00000000001916650100000000009584169590950266ff0000000000001916949094176601000000000000918316919091021767ff00000000000000191667010000000000000091909216021790556107f73383611f56565b600e5461080d90600160a060020a031683610a2c565b8051604080518481526020810186905261ffff90921682820152517f070aa035fe0a09f0d9305bdc2d7a5d93cd4733db3b1ff869b4a7033c9501909a9181900360600190a1610860600f80546001019055565b3360009081526012602052604081206108789161351c565b5050506108f6565b60405160e560020a62461bcd02815260206004820152603460248201527f4163636f756e7420286d73672e73656e64657229206d7573742068617665206160448201527f6e20617070726f766564206d696e74206b65792e00000000000000000000000060648201526084015b60405180910390fd5b505050505050565b60606002805461090d9061399c565b80601f01602080910402602001604051908101604052809291908181526020018280546109399061399c565b80156109865780601f1061095b57610100808354040283529160200191610986565b820191906000526020600020905b81548152906001019060200180831161096957829003601f168201915b5050505050905090565b600061099b82611f70565b610a105760405160e560020a62461bcd02815260206004820152602c60248201527f4552433732313a20617070726f76656420717565727920666f72206e6f6e657860448201527f697374656e7420746f6b656e000000000000000000000000000000000000000060648201526084016108ed565b50600090815260066020526040902054600160a060020a031690565b6000610a378261126a565b905080600160a060020a031683600160a060020a03161415610ac45760405160e560020a62461bcd02815260206004820152602160248201527f4552433732313a20617070726f76616c20746f2063757272656e74206f776e6560448201527f720000000000000000000000000000000000000000000000000000000000000060648201526084016108ed565b33600160a060020a0382161480610ae05750610ae08133610599565b610b555760405160e560020a62461bcd02815260206004820152603860248201527f4552433732313a20617070726f76652063616c6c6572206973206e6f74206f7760448201527f6e6572206e6f7220617070726f76656420666f7220616c6c000000000000000060648201526084016108ed565b610b5f8383611f8d565b505050565b6060610b6f82611f70565b610b8e5760405160e560020a62461bcd0281526004016108ed90613ab8565b60008281526011602052604090206002018054610baa9061399c565b80601f0160208091040260200160405190810160405280929190818152602001828054610bd69061399c565b8015610c235780601f10610bf857610100808354040283529160200191610c23565b820191906000526020600020905b815481529060010190602001808311610c0657829003601f168201915b50505050509050919050565b3360008181526013602052604090205460ff1615610c6a57610c52848484612008565b336000908152601360205260409020805460ff191690555b50505050565b6000806000610c7e84611f70565b610c9d5760405160e560020a62461bcd0281526004016108ed90613ab8565b600084815260116020526040808220815160a08101909252805482908290610cc49061399c565b80601f0160208091040260200160405190810160405280929190818152602001828054610cf09061399c565b8015610d3d5780601f10610d1257610100808354040283529160200191610d3d565b820191906000526020600020905b815481529060010190602001808311610d2057829003601f168201915b50505050508152602001600182018054610d569061399c565b80601f0160208091040260200160405190810160405280929190818152602001828054610d829061399c565b8015610dcf5780601f10610da457610100808354040283529160200191610dcf565b820191906000526020600020905b815481529060010190602001808311610db257829003601f168201915b50505050508152602001600282018054610de89061399c565b80601f0160208091040260200160405190810160405280929190818152602001828054610e149061399c565b8015610e615780601f10610e3657610100808354040283529160200191610e61565b820191906000526020600020905b815481529060010190602001808311610e4457829003601f168201915b505050918352505060038201546020808301919091526040805160e08101825260049094015461ffff8116855260ff62010000820481168685015263010000008204811686840152640100000000820481166060870152650100000000008204811660808088019190915266010000000000008304821660a08801526701000000000000009092041660c0860152928101939093529201519081015191810151905191955093509150509193909250565b600082815260208190526040902060010154610f2e81336121f3565b610b5f838361225a565b6000610f43836117f5565b8210610fba5760405160e560020a62461bcd02815260206004820152602b60248201527f455243373231456e756d657261626c653a206f776e657220696e646578206f7560448201527f74206f6620626f756e647300000000000000000000000000000000000000000060648201526084016108ed565b50600160a060020a03919091166000908152600860209081526040808320938352929052205490565b600160a060020a03811633146110645760405160e560020a62461bcd02815260206004820152602f60248201527f416363657373436f6e74726f6c3a2063616e206f6e6c792072656e6f756e636560448201527f20726f6c657320666f722073656c66000000000000000000000000000000000060648201526084016108ed565b61106e828261227c565b5050565b61109c7f65d7a28e3265b37a6474929f336521b332c1681b933f6cb9f3376673440d862a3361199f565b611113576040805160e560020a62461bcd0281526020600482015260248101919091527f4552433732315072657365744d696e7465725061757365724175746f49643a2060448201527f6d75737420686176652070617573657220726f6c6520746f20756e706175736560648201526084016108ed565b61111b61229e565b565b610b5f838383604051806020016040528060008152506119e2565b6111423382612332565b6111b75760405160e560020a62461bcd02815260206004820152603060248201527f4552433732314275726e61626c653a2063616c6c6572206973206e6f74206f7760448201527f6e6572206e6f7220617070726f7665640000000000000000000000000000000060648201526084016108ed565b6111c081612430565b50565b60006111ce600a5490565b82106112455760405160e560020a62461bcd02815260206004820152602c60248201527f455243373231456e756d657261626c653a20676c6f62616c20696e646578206f60448201527f7574206f6620626f756e6473000000000000000000000000000000000000000060648201526084016108ed565b600a828154811061125857611258613aef565b90600052602060002001549050919050565b600081815260046020526040812054600160a060020a0316806105e55760405160e560020a62461bcd02815260206004820152602960248201527f4552433732313a206f776e657220717565727920666f72206e6f6e657869737460448201527f656e7420746f6b656e000000000000000000000000000000000000000000000060648201526084016108ed565b600061130382611f70565b6113225760405160e560020a62461bcd0281526004016108ed90613ab8565b6040517f92d6631300000000000000000000000000000000000000000000000000000000815242600482015260009073__DateTime______________________________906392d6631390602401602060405180830381865af415801561138d573d6000803e3d6000fd5b505050506040513d601f19601f820116820180604052508101906113b19190613b08565b6040517fa324ad2400000000000000000000000000000000000000000000000000000000815242600482015290915060009073__DateTime______________________________9063a324ad2490602401602060405180830381865af415801561141f573d6000803e3d6000fd5b505050506040513d601f19601f820116820180604052508101906114439190613b2c565b6040517f65c7284000000000000000000000000000000000000000000000000000000000815242600482015290915060009073__DateTime______________________________906365c7284090602401602060405180830381865af41580156114b1573d6000803e3d6000fd5b505050506040513d601f19601f820116820180604052508101906114d59190613b2c565b90506000601160008781526020019081526020016000206040518060a00160405290816000820180546115079061399c565b80601f01602080910402602001604051908101604052809291908181526020018280546115339061399c565b80156115805780601f1061155557610100808354040283529160200191611580565b820191906000526020600020905b81548152906001019060200180831161156357829003601f168201915b505050505081526020016001820180546115999061399c565b80601f01602080910402602001604051908101604052809291908181526020018280546115c59061399c565b80156116125780601f106115e757610100808354040283529160200191611612565b820191906000526020600020905b8154815290600101906020018083116115f557829003601f168201915b5050505050815260200160028201805461162b9061399c565b80601f01602080910402602001604051908101604052809291908181526020018280546116579061399c565b80156116a45780601f10611679576101008083540402835291602001916116a4565b820191906000526020600020905b81548152906001019060200180831161168757829003601f168201915b505050918352505060038201546020808301919091526040805160e08101825260049094015461ffff808216865260ff62010000830481168786015263010000008304811687850152640100000000830481166060880152650100000000008304811660808089019190915266010000000000008404821660a08901526701000000000000009093041660c087015293820194909452928401518051918101519381015194955093909291888116908416101561176b575060019998505050505050505050565b8761ffff168361ffff16111561178b575060009998505050505050505050565b8160ff168760ff1610156117a9575060019998505050505050505050565b8160ff168760ff1611156117c7575060009998505050505050505050565b8060ff168660ff1610156117e5575060019998505050505050505050565b5060009998505050505050505050565b6000600160a060020a0382166118765760405160e560020a62461bcd02815260206004820152602a60248201527f4552433732313a2062616c616e636520717565727920666f7220746865207a6560448201527f726f20616464726573730000000000000000000000000000000000000000000060648201526084016108ed565b50600160a060020a031660009081526005602052604090205490565b6118bc7f9f2df0fed2c77648de5860a4cc508cd0818c85b8b8a1ab4ceeef8d981c8956a63361199f565b6119575760405160e560020a62461bcd02815260206004820152604760248201527f455243373231417070726f7665644d696e743a206d7573742068617665204d4960448201527f4e5445525f524f4c45206f72206265206f776e657220746f20616c6c6f77206d60648201527f696e74696e672e00000000000000000000000000000000000000000000000000608482015260a4016108ed565b600160a060020a03811660009081526012602090815260409091208351610b5f92850190613498565b600082815260016020526040812061199890836124e4565b9392505050565b600091825260208281526040808420600160a060020a0393909316845291905290205460ff1690565b60606003805461090d9061399c565b61106e3383836124f0565b3360008181526013602052604090205460ff1615611a1e57611a06858585856125c2565b336000908152601360205260409020805460ff191690555b5050505050565b6060611a3082611f70565b611aa55760405160e560020a62461bcd02815260206004820152602f60248201527f4552433732314d657461646174613a2055524920717565727920666f72206e6f60448201527f6e6578697374656e7420746f6b656e000000000000000000000000000000000060648201526084016108ed565b6000611aaf6125f8565b90506000815111611acf5760405180602001604052806000815250611998565b80611ad984612607565b604051602001611aea929190613b4f565b6040516020818303038152906040529392505050565b60008181526001602052604081206105e590612740565b600082815260208190526040902060010154611b3381336121f3565b610b5f838361227c565b6060611b4882611f70565b611b675760405160e560020a62461bcd0281526004016108ed90613ab8565b600e54604051600160a060020a039091166c0100000000000000000000000002602082015260340160405160208183030381529060405280519060200120611bac3390565b604051600160a060020a03919091166c010000000000000000000000000260208201526034016040516020818303038152906040528051906020012014611c385760405160e560020a62461bcd02815260206004820152600860248201527f4552433732313a2000000000000000000000000000000000000000000000000060448201526064016108ed565b60008281526011602052604090208054610baa9061399c565b6060611c5c82611f70565b611c7b5760405160e560020a62461bcd0281526004016108ed90613ab8565b60008281526011602052604090206001018054610baa9061399c565b611ca1828261199f565b61106e57600082815260208181526040808320600160a060020a03851684529091529020805460ff19166001179055611cd73390565b600160a060020a031681600160a060020a0316837f2f8788117e7eff1d82e926ec794901d17c78024a50270940304540a733656f0d60405160405180910390a45050565b600061199883600160a060020a03841661274a565b6000600160e060020a031982167f780e9d630000000000000000000000000000000000000000000000000000000014806105e557506105e582612799565b6040805160e081018252600080825260208201819052918101829052606081018290526080810182905260a0810182905260c08101829052908080611db28561280b565b61ffff168452611dc36107b2612900565b8451611dd29061ffff16612900565b611ddc9190613b75565b9150611dec826301e28500613b8c565b611df69084613bab565b9250816107b28560000151611e0b9190613bc3565b61ffff16611e199190613b75565b611e27906301e13380613b8c565b611e319084613bab565b92506000600191505b600c8260ff1611611ea257611e53828660000151612945565b611e639060ff1662015180613b8c565b905085611e708583613bab565b1115611e845760ff82166020860152611ea2565b611e8e8185613bab565b935081611e9a81613be6565b925050611e3a565b600191505b611eb985602001518660000151612945565b60ff168260ff1611611f085785611ed38562015180613bab565b1115611ee75760ff82166040860152611f08565b611ef46201518085613bab565b935081611f0081613be6565b925050611ea7565b611f1186612a0b565b60ff166060860152611f2286612a2f565b60ff166080860152611f3386612a3d565b60ff1660a0860152611f4486612a4a565b60ff1660c08601525092949350505050565b61106e828260405180602001604052806000815250612a66565b600090815260046020526040902054600160a060020a0316151590565b6000818152600660205260409020805473ffffffffffffffffffffffffffffffffffffffff1916600160a060020a0384169081179091558190611fcf8261126a565b600160a060020a03167f8c5be1e5ebec7d5bd14f71427d1e84f3dd0314c0f7b2291e5b200ac8c7c3b92560405160405180910390a45050565b82600160a060020a031661201b8261126a565b600160a060020a03161461209a5760405160e560020a62461bcd02815260206004820152602960248201527f4552433732313a207472616e73666572206f6620746f6b656e2074686174206960448201527f73206e6f74206f776e000000000000000000000000000000000000000000000060648201526084016108ed565b600160a060020a0382166121185760405160e560020a62461bcd028152602060048201526024808201527f4552433732313a207472616e7366657220746f20746865207a65726f2061646460448201527f726573730000000000000000000000000000000000000000000000000000000060648201526084016108ed565b612123838383612a9c565b61212e600082611f8d565b600160a060020a0383166000908152600560205260408120805460019290612157908490613b75565b9091555050600160a060020a0382166000908152600560205260408120805460019290612185908490613bab565b9091555050600081815260046020526040808220805473ffffffffffffffffffffffffffffffffffffffff1916600160a060020a0386811691821790925591518493918716917fddf252ad1be2c89b69c2b068fc378daa952ba7f163c4a11628f55a4df523b3ef91a4505050565b6121fd828261199f565b61106e5761221581600160a060020a03166014612aa7565b612220836020612aa7565b604051602001612231929190613c06565b60408051601f198184030181529082905260e560020a62461bcd0282526108ed9160040161374e565b6122648282611c97565b6000828152600160205260409020610b5f9082611d1b565b6122868282612ca9565b6000828152600160205260409020610b5f9082612d0e565b600c5460ff166122f35760405160e560020a62461bcd02815260206004820152601460248201527f5061757361626c653a206e6f742070617573656400000000000000000000000060448201526064016108ed565b600c805460ff191690556040805133815290517f5db9ee0a495bf2e6ff9c91a7834c1ba4fdd244a5e8aa4e537bd38aeae4b073aa9181900360200190a1565b600061233d82611f70565b6123b25760405160e560020a62461bcd02815260206004820152602c60248201527f4552433732313a206f70657261746f7220717565727920666f72206e6f6e657860448201527f697374656e7420746f6b656e000000000000000000000000000000000000000060648201526084016108ed565b60006123bd8361126a565b905080600160a060020a031684600160a060020a031614806123f8575083600160a060020a03166123ed84610990565b600160a060020a0316145b806124285750600160a060020a0380821660009081526007602090815260408083209388168352929052205460ff165b949350505050565b600061243b8261126a565b905061244981600084612a9c565b612454600083611f8d565b600160a060020a038116600090815260056020526040812080546001929061247d908490613b75565b9091555050600082815260046020526040808220805473ffffffffffffffffffffffffffffffffffffffff1916905551839190600160a060020a038416907fddf252ad1be2c89b69c2b068fc378daa952ba7f163c4a11628f55a4df523b3ef908390a45050565b60006119988383612d23565b81600160a060020a031683600160a060020a031614156125555760405160e560020a62461bcd02815260206004820152601960248201527f4552433732313a20617070726f766520746f2063616c6c65720000000000000060448201526064016108ed565b600160a060020a03838116600081815260076020908152604080832094871680845294825291829020805460ff191686151590811790915591519182527f17307eab39ab6107e8899845ad3d59bd9653f200f220920489ca2b5937696c31910160405180910390a3505050565b6125cd848484612008565b6125d984848484612d4d565b610c6a5760405160e560020a62461bcd0281526004016108ed90613c87565b60606010805461090d9061399c565b60608161264757505060408051808201909152600181527f3000000000000000000000000000000000000000000000000000000000000000602082015290565b8160005b8115612671578061265b81613ce4565b915061266a9050600a83613d18565b915061264b565b60008167ffffffffffffffff81111561268c5761268c61359a565b6040519080825280601f01601f1916602001820160405280156126b6576020820181803683370190505b5090505b8415612428576126cb600183613b75565b91506126d8600a86613d2c565b6126e3906030613bab565b7f01000000000000000000000000000000000000000000000000000000000000000281838151811061271757612717613aef565b6020010190600160f860020a031916908160001a905350612739600a86613d18565b94506126ba565b60006105e5825490565b6000818152600183016020526040812054612791575081546001818101845560008481526020808220909301849055845484825282860190935260409020919091556105e5565b5060006105e5565b6000600160e060020a031982167f80ac58cd0000000000000000000000000000000000000000000000000000000014806127fc5750600160e060020a031982167f5b5e139f00000000000000000000000000000000000000000000000000000000145b806105e557506105e582612e80565b600080808061281e6301e1338086613d18565b61282a906107b2613bab565b91506128376107b2612900565b6128448361ffff16612900565b61284e9190613b75565b905061285e816301e28500613b8c565b6128689084613bab565b9250806128776107b284613bc3565b61ffff166128859190613b75565b612893906301e13380613b8c565b61289d9084613bab565b92505b848311156128f8576128bb6128b6600184613bc3565b612ebe565b156128d5576128ce6301e2850084613b75565b92506128e6565b6128e36301e1338084613b75565b92505b6128f1600183613bc3565b91506128a0565b509392505050565b600061290d600183613b75565b915061291b61019083613d18565b612926606484613d18565b612931600485613d18565b61293b9190613b75565b6105e59190613bab565b60008260ff166001148061295c57508260ff166003145b8061296a57508260ff166005145b8061297857508260ff166007145b8061298657508260ff166008145b8061299457508260ff16600a145b806129a257508260ff16600c145b156129af5750601f6105e5565b8260ff16600414806129c457508260ff166006145b806129d257508260ff166009145b806129e057508260ff16600b145b156129ed5750601e6105e5565b6129f682612ebe565b15612a035750601d6105e5565b50601c6105e5565b60006018603c612a1b8185613d18565b612a259190613d18565b6105e59190613d2c565b6000603c612a258184613d18565b60006105e5603c83613d2c565b60006007612a5b6201518084613d18565b612a25906004613bab565b612a708383612f1d565b612a7d6000848484612d4d565b610b5f5760405160e560020a62461bcd0281526004016108ed90613c87565b610b5f83838361306f565b60606000612ab6836002613b8c565b612ac1906002613bab565b67ffffffffffffffff811115612ad957612ad961359a565b6040519080825280601f01601f191660200182016040528015612b03576020820181803683370190505b5090507f300000000000000000000000000000000000000000000000000000000000000081600081518110612b3a57612b3a613aef565b6020010190600160f860020a031916908160001a9053507f780000000000000000000000000000000000000000000000000000000000000081600181518110612b8557612b85613aef565b6020010190600160f860020a031916908160001a9053506000612ba9846002613b8c565b612bb4906001613bab565b90505b6001811115612c57577f303132333435363738396162636465660000000000000000000000000000000085600f1660108110612bf557612bf5613aef565b1a7f010000000000000000000000000000000000000000000000000000000000000002828281518110612c2a57612c2a613aef565b6020010190600160f860020a031916908160001a905350601090940493612c5081613d40565b9050612bb7565b5083156119985760405160e560020a62461bcd02815260206004820181905260248201527f537472696e67733a20686578206c656e67746820696e73756666696369656e7460448201526064016108ed565b612cb3828261199f565b1561106e57600082815260208181526040808320600160a060020a0385168085529252808320805460ff1916905551339285917ff6391f5c32d9c69d2a47ea670b442974b53935d1edc7fd64eb21e047a839171b9190a45050565b600061199883600160a060020a0384166130f6565b6000826000018281548110612d3a57612d3a613aef565b9060005260206000200154905092915050565b6000600160a060020a0384163b15612e75576040517f150b7a02000000000000000000000000000000000000000000000000000000008152600160a060020a0385169063150b7a0290612daa903390899088908890600401613d57565b6020604051808303816000875af1925050508015612de5575060408051601f3d908101601f19168201909252612de291810190613d93565b60015b612e42573d808015612e13576040519150601f19603f3d011682016040523d82523d6000602084013e612e18565b606091505b508051612e3a5760405160e560020a62461bcd0281526004016108ed90613c87565b805181602001fd5b600160e060020a0319167f150b7a0200000000000000000000000000000000000000000000000000000000149050612428565b506001949350505050565b6000600160e060020a031982167f5a05180f0000000000000000000000000000000000000000000000000000000014806105e557506105e5826131e9565b6000612ecb600483613db0565b61ffff1615612edc57506000919050565b612ee7606483613db0565b61ffff1615612ef857506001919050565b612f0461019083613db0565b61ffff1615612f1557506000919050565b506001919050565b600160a060020a038216612f765760405160e560020a62461bcd02815260206004820181905260248201527f4552433732313a206d696e7420746f20746865207a65726f206164647265737360448201526064016108ed565b612f7f81611f70565b15612fcf5760405160e560020a62461bcd02815260206004820152601c60248201527f4552433732313a20746f6b656e20616c7265616479206d696e7465640000000060448201526064016108ed565b612fdb60008383612a9c565b600160a060020a0382166000908152600560205260408120805460019290613004908490613bab565b9091555050600081815260046020526040808220805473ffffffffffffffffffffffffffffffffffffffff1916600160a060020a03861690811790915590518392907fddf252ad1be2c89b69c2b068fc378daa952ba7f163c4a11628f55a4df523b3ef908290a45050565b61307a838383613250565b600c5460ff1615610b5f5760405160e560020a62461bcd02815260206004820152602b60248201527f4552433732315061757361626c653a20746f6b656e207472616e73666572207760448201527f68696c652070617573656400000000000000000000000000000000000000000060648201526084016108ed565b600081815260018301602052604081205480156131df57600061311a600183613b75565b855490915060009061312e90600190613b75565b905081811461319357600086600001828154811061314e5761314e613aef565b906000526020600020015490508087600001848154811061317157613171613aef565b6000918252602080832090910192909255918252600188019052604090208390555b85548690806131a4576131a4613dd1565b6001900381819060005260206000200160009055905585600101600086815260200190815260200160002060009055600193505050506105e5565b60009150506105e5565b6000600160e060020a031982167f7965db0b0000000000000000000000000000000000000000000000000000000014806105e557507f01ffc9a700000000000000000000000000000000000000000000000000000000600160e060020a03198316146105e5565b600160a060020a0383166132ab576132a681600a80546000838152600b60205260408120829055600182018355919091527fc65a7bb8d6351c1cf70c95a316cc6a92839c986682d98bc35f958f4883f9d2a80155565b6132ce565b81600160a060020a031683600160a060020a0316146132ce576132ce8382613308565b600160a060020a0382166132e557610b5f816133a5565b82600160a060020a031682600160a060020a031614610b5f57610b5f8282613454565b60006001613315846117f5565b61331f9190613b75565b60008381526009602052604090205490915080821461337257600160a060020a03841660009081526008602090815260408083208584528252808320548484528184208190558352600990915290208190555b506000918252600960209081526040808420849055600160a060020a039094168352600881528383209183525290812055565b600a546000906133b790600190613b75565b6000838152600b6020526040812054600a80549394509092849081106133df576133df613aef565b9060005260206000200154905080600a838154811061340057613400613aef565b6000918252602080832090910192909255828152600b9091526040808220849055858252812055600a80548061343857613438613dd1565b6001900381819060005260206000200160009055905550505050565b600061345f836117f5565b600160a060020a039093166000908152600860209081526040808320868452825280832085905593825260099052919091209190915550565b8280546134a49061399c565b90600052602060002090601f0160209004810192826134c6576000855561350c565b82601f106134df57805160ff191683800117855561350c565b8280016001018555821561350c579182015b8281111561350c5782518255916020019190600101906134f1565b50613518929150613552565b5090565b5080546135289061399c565b6000825580601f10613538575050565b601f0160209004906000526020600020908101906111c091905b5b808211156135185760008155600101613553565b600160e060020a0319811681146111c057600080fd5b60006020828403121561358f57600080fd5b813561199881613567565b60e060020a634e487b7102600052604160045260246000fd5b600067ffffffffffffffff808411156135ce576135ce61359a565b604051601f8501601f19908116603f011681019082821181831017156135f6576135f661359a565b8160405280935085815286868601111561360f57600080fd5b858560208301376000602087830101525050509392505050565b600082601f83011261363a57600080fd5b611998838335602085016135b3565b6000806000806080858703121561365f57600080fd5b843567ffffffffffffffff8082111561367757600080fd5b61368388838901613629565b9550602087013591508082111561369957600080fd5b6136a588838901613629565b945060408701359150808211156136bb57600080fd5b6136c788838901613629565b935060608701359150808211156136dd57600080fd5b506136ea87828801613629565b91505092959194509250565b60005b838110156137115781810151838201526020016136f9565b83811115610c6a5750506000910152565b6000815180845261373a8160208601602086016136f6565b601f01601f19169290920160200192915050565b6020815260006119986020830184613722565b60006020828403121561377357600080fd5b5035919050565b8035600160a060020a038116811461379157600080fd5b919050565b600080604083850312156137a957600080fd5b6137b28361377a565b946020939093013593505050565b6000806000606084860312156137d557600080fd5b6137de8461377a565b92506137ec6020850161377a565b9150604084013590509250925092565b6000806040838503121561380f57600080fd5b8235915061381f6020840161377a565b90509250929050565b60006020828403121561383a57600080fd5b6119988261377a565b6000806040838503121561385657600080fd5b823567ffffffffffffffff81111561386d57600080fd5b61387985828601613629565b92505061381f6020840161377a565b6000806040838503121561389b57600080fd5b50508035926020909101359150565b600080604083850312156138bd57600080fd5b6138c68361377a565b9150602083013580151581146138db57600080fd5b809150509250929050565b600080600080608085870312156138fc57600080fd5b6139058561377a565b93506139136020860161377a565b925060408501359150606085013567ffffffffffffffff81111561393657600080fd5b8501601f8101871361394757600080fd5b6136ea878235602084016135b3565b6000806040838503121561396957600080fd5b6139728361377a565b915061381f6020840161377a565b600082516139928184602087016136f6565b9190910192915050565b6002810460018216806139b057607f821691505b602082108114156139d45760e060020a634e487b7102600052602260045260246000fd5b50919050565b81546000908190600281046001808316806139f657607f831692505b6020808410821415613a195760e060020a634e487b710286526022600452602486fd5b818015613a2d5760018114613a3e57613a6b565b60ff19861689528489019650613a6b565b60008a81526020902060005b86811015613a635781548b820152908501908301613a4a565b505084890196505b509498975050505050505050565b60e060020a634e487b7102600052601160045260246000fd5b600061ffff808316818516808303821115613aaf57613aaf613a79565b01949350505050565b6020808252601f908201527f4552433732313a20746f6b656e496420646f6573206e6f742065786973742e00604082015260600190565b60e060020a634e487b7102600052603260045260246000fd5b600060208284031215613b1a57600080fd5b815161ffff8116811461199857600080fd5b600060208284031215613b3e57600080fd5b815160ff8116811461199857600080fd5b60008351613b618184602088016136f6565b835190830190613aaf8183602088016136f6565b600082821015613b8757613b87613a79565b500390565b6000816000190483118215151615613ba657613ba6613a79565b500290565b60008219821115613bbe57613bbe613a79565b500190565b600061ffff83811690831681811015613bde57613bde613a79565b039392505050565b600060ff821660ff811415613bfd57613bfd613a79565b60010192915050565b7f416363657373436f6e74726f6c3a206163636f756e7420000000000000000000815260008351613c3e8160178501602088016136f6565b7f206973206d697373696e6720726f6c65200000000000000000000000000000006017918401918201528351613c7b8160288401602088016136f6565b01602801949350505050565b60208082526032908201527f4552433732313a207472616e7366657220746f206e6f6e20455243373231526560408201527f63656976657220696d706c656d656e7465720000000000000000000000000000606082015260800190565b6000600019821415613cf857613cf8613a79565b5060010190565b60e060020a634e487b7102600052601260045260246000fd5b600082613d2757613d27613cff565b500490565b600082613d3b57613d3b613cff565b500690565b600081613d4f57613d4f613a79565b506000190190565b6000600160a060020a03808716835280861660208401525083604083015260806060830152613d896080830184613722565b9695505050505050565b600060208284031215613da557600080fd5b815161199881613567565b600061ffff80841680613dc557613dc5613cff565b92169190910692915050565b60e060020a634e487b7102600052603160045260246000fdfea26469706673582212205da2c95fa299d04f62f68cebcfaab07bdafb19e17dc88aca0bc26e545269eba064736f6c634300080b0033",
  "immutableReferences": {},
  "source": "// SPDX-License-Identifier: MIT\npragma solidity ^0.8.0;\n\nimport \"../node_modules/@openzeppelin/contracts/token/ERC721/ERC721.sol\";\nimport \"../node_modules/@openzeppelin/contracts/token/ERC721/extensions/ERC721Enumerable.sol\";\nimport \"../node_modules/@openzeppelin/contracts/token/ERC721/extensions/ERC721Burnable.sol\";\nimport \"../node_modules/@openzeppelin/contracts/token/ERC721/extensions/ERC721Pausable.sol\";\nimport \"../node_modules/@openzeppelin/contracts/access/AccessControlEnumerable.sol\";\nimport \"../node_modules/@openzeppelin/contracts/utils/Context.sol\";\nimport \"../node_modules/@openzeppelin/contracts/utils/Counters.sol\";\nimport \"./DateTime.sol\";\n\n/**\nTODO: Add EVENTS\n        EVENT 1] Mint(tokenId)\n        EVENT 2]\n */\n\ncontract AtlanticId is\n    Context,\n    AccessControlEnumerable,\n    ERC721Burnable,\n    ERC721Enumerable,\n    ERC721Pausable\n{\n    //** LIBRARIES */\n    using Counters for Counters.Counter;\n    using DateTime for DateTime._DateTime;\n    // using DateTime for *;\n\n    /** --- USER ROLES --- */\n    bytes32 public constant MINTER_ROLE   = keccak256(\"MINTER_ROLE\");\n    bytes32 public constant PAUSER_ROLE   = keccak256(\"PAUSER_ROLE\");\n    bytes32 public constant BURNER_ROLE   = keccak256(\"BURNER_ROLE\");\n    bytes32 public constant TRANSFER_ROLE = keccak256(\"TRANSFER_ROLE\");\n\n    /** LOCAL VARIABLES */\n    string private key;\n    address atlanticIdOwner;\n    Counters.Counter private _tokenIdTracker;   // Token Id Tracker\n    string private _baseTokenURI;               // This URI should point to the public JSON data of the user\n    struct AID {                                // (A)tlantic (Id)entification\n        string ens;                               //> | User's name\n        string uid;                               //> | User's Identification Number\n        string exchange;                          //> | Centralized Exchange where user's KYC info is registered\n        uint256 tokenId;                          //> | User's NFT token ID.\n        DateTime._DateTime expiry;                //> | Expiration date - period of valid ID\n    }\n    mapping(uint256 => AID) id_to_AID;          // TokenId mapped to User's Information\n    mapping(address => string) mint_key;        // Checks if address has an approved key.\n    mapping(address => bool) transfer_key;      // Checks if address has an approved key.\n    mapping(string => uint) _months;            // Mapping of months to numbers\n\n    /** EVENTS */\n    event Mint(uint256 tokenId, uint timestamp, uint256 yearExpired);\n\n\n    /** CONSTRUCTOR */\n    constructor() ERC721(\"AtlanticId\",\"AID\") {\n        atlanticIdOwner = _msgSender();\n        // --- SET ROLES ---\n        _setupRole(MINTER_ROLE, atlanticIdOwner);\n        _setupRole(PAUSER_ROLE, atlanticIdOwner);\n        _setupRole(BURNER_ROLE, atlanticIdOwner);\n        _setupRole(TRANSFER_ROLE, atlanticIdOwner);\n    }\n\n    // ===================================================\n    /** --- ERC-721 FUNCTIONS OVERRIDE & INITIALIZE --- */\n    // ===================================================\n    /**\n    FUNCTIONS\n    ---------\n        > _baseURI()\n        > supportsInterface()\n        > unpause()\n        > _beforeTokenTransfer()\n        > _beforeTokenTransfer()\n        > transferFrom()\n        > safeTransferFrom()\n    \n    TRANSFER FUNCTIONS\n    ------------------\n        > \n     */\n    function _baseURI() internal view virtual override returns (string memory) {\n        return _baseTokenURI;\n    }\n\n    /**\n     * @dev See {IERC165-supportsInterface}.\n     */\n    function supportsInterface(bytes4 interfaceId)\n        public\n        view\n        virtual\n        override(AccessControlEnumerable, ERC721, ERC721Enumerable)\n        returns (bool)\n    {\n        return super.supportsInterface(interfaceId);\n    }\n\n    /**\n     * @dev Unpauses all token transfers.\n     *\n     * See {ERC721Pausable} and {Pausable-_unpause}.\n     *\n     * Requirements:\n     *\n     * - the caller must have the `PAUSER_ROLE`.\n     */\n    function unpause() public virtual {\n        require(hasRole(PAUSER_ROLE, _msgSender()), \"ERC721PresetMinterPauserAutoId: must have pauser role to unpause\");\n        _unpause();\n    }\n\n    function _beforeTokenTransfer(\n        address from,\n        address to,\n        uint256 tokenId\n    ) internal virtual override(ERC721, ERC721Enumerable, ERC721Pausable) {\n        super._beforeTokenTransfer(from, to, tokenId);\n    }\n\n    function transferFrom(\n        address from,\n        address to,\n        uint256 tokenId\n    ) public override canTransfer(_msgSender())\n    {\n        _transfer(from, to, tokenId);\n        delete transfer_key[_msgSender()];\n    }\n\n    function safeTransferFrom(\n        address from,\n        address to,\n        uint256 tokenId,\n        bytes memory _data\n    ) public override canTransfer(_msgSender())\n    {\n        _safeTransfer(from, to, tokenId, _data);\n        delete transfer_key[_msgSender()];\n    }\n\n    // ==============================\n    /** ATLANTICID SPECIFIC FUNCTIONS */\n    /**\n    FUNCTIONS\n    ---------\n        > approveMint()\n        > mint()\n     */\n\n    function approveMint(string memory _key, address from) public {\n        require(hasRole(MINTER_ROLE, _msgSender()), \"ERC721ApprovedMint: must have MINTER_ROLE or be owner to allow minting.\");\n        mint_key[from] = _key;\n    }\n\n\n    /**\n     * @dev Unpauses all token transfers.\n     *\n     * See {ERC721Pausable} and {Pausable-_unpause}.\n     *\n     * Requirements:\n     *\n     * - the caller must have the `PAUSER_ROLE`.\n     *\n     *\n     * TODO: \n     *  - Add approved wallet access by contract owner.\n     */\n    function mint(\n        string memory _ens,\n        string memory _uid,\n        string memory _exchange,\n        string memory _key\n    ) public\n      hasKey(_msgSender(), _key)\n    {\n        /** FUNCTION VARIABLES */\n        uint _timestamp = block.timestamp;\n        // STEP 1: Require MINTER_ROLE & _key\n        // require(hasRole(MINTER_ROLE, _msgSender()), \"ERC721PresetMinterPauserAutoId: must have minter role to mint\");\n        uint256 _tokenId = _tokenIdTracker.current();\n\n        // STEP 2: Calculate the Expiration Date\n        // --- Calculate the Expiration Date ---\n        DateTime._DateTime memory _expiry = DateTime.parseTimestamp(_timestamp);\n        _expiry.year = _expiry.year + 1;\n\n        // STEP 3: Create Mapping\n        // --- Map the NFT IdNumber to the Data --- \n        id_to_AID[_tokenIdTracker.current()] = AID({\n            ens: _ens,\n            uid: _uid,\n            exchange: _exchange,\n            expiry: _expiry,\n            tokenId: _tokenId\n        });\n\n        // STEP 4: Mint NFID\n        _safeMint(_msgSender(), _tokenId);\n\n        // SETUP 5: Allow atlanticIdOwner to Manage NFT\n        approve(atlanticIdOwner, _tokenId);\n        emit Mint(_tokenId, _timestamp, _expiry.year);\n        _tokenIdTracker.increment();\n\n        // STEP 6: Delete _key\n        delete mint_key[_msgSender()];\n    }\n\n\n    /**\n        ==============================\n        |   NFID SPECIFIC FUNTIONS   |\n        ==============================\n        TODO: Add isValidAid()  - This function could use Chainlink (recommended) to bring in the current date, \n                                  or the function could take in what the current date it is (not recommended).\n        TODO: Add getUid()      - Returns AID user ID.\n        TODO: Add getEns()\n        TODO: Add getExchange()\n        TODO: Add getExpry()\n     */\n\n    function getUid(\n        uint256 _tokenId\n    ) public view\n      returns (string memory)\n    {\n        require(_exists(_tokenId),\"ERC721: tokenId does not exist.\");\n        return id_to_AID[_tokenId].uid;\n    }\n\n    function getEns(\n        uint256 _tokenId\n    ) public view \n      returns (string memory)\n    {\n        require(_exists(_tokenId),\"ERC721: tokenId does not exist.\");\n        require(keccak256(abi.encodePacked(_msgSender())) == keccak256(abi.encodePacked(atlanticIdOwner)),\"ERC721: \");\n        return id_to_AID[_tokenId].ens;\n    }\n\n    function getExchange(\n        uint256 _tokenId\n    ) public view\n      returns (string memory)\n    {\n        require(_exists(_tokenId),\"ERC721: tokenId does not exist.\");\n        return id_to_AID[_tokenId].exchange;\n    }\n\n    function getExpry(\n        uint256 _tokenId\n    ) public view\n      returns (uint8 day, uint8 month, uint16 year)\n    {\n        require(_exists(_tokenId),\"ERC721: tokenId does not exist.\");\n        AID memory user_aid = id_to_AID[_tokenId];\n        DateTime._DateTime memory user_date = user_aid.expiry;\n        return (user_date.day, user_date.month, user_date.year);\n    }\n\n    function isValidAid(\n        uint256 _tokenId\n    ) public view\n      returns (bool)\n    {\n        require(_exists(_tokenId),\"ERC721: tokenId does not exist.\");\n        uint16 now_year = DateTime.getYear(block.timestamp);\n        uint8 now_month = DateTime.getMonth(block.timestamp);\n        uint8 now_day = DateTime.getDay(block.timestamp);\n\n        AID memory user_aid = id_to_AID[_tokenId];\n        DateTime._DateTime memory user_date = user_aid.expiry;\n        uint16 id_year = user_date.year;\n        uint8 id_month = user_date.month;\n        uint8 id_day = user_date.day;\n\n        if (id_year < now_year) {\n            return true;\n        } else if (id_year > now_year) {\n            return false;\n        } else {\n            if (now_month < id_month) {\n                return true;\n            } else if (now_month > id_month) {\n                return false;\n            } else {\n                if (now_day < id_day) {\n                    return true;\n                } else {\n                    return false;\n                }\n            }\n        }\n    }\n\n    /** MODIFIERS */\n    // keccak256(abi.encodePacked(a)\n    modifier hasKey(address _sender, string memory _key) {\n      if (keccak256(abi.encodePacked(mint_key[_sender])) == keccak256(abi.encodePacked(_key))) {\n         _;\n      } else {\n          revert(\"Account (msg.sender) must have an approved mint key.\");\n      }\n    }\n\n    modifier canTransfer(address _sender) {\n      if (transfer_key[_sender]) {\n         _;\n      }\n    }\n\n}",
  "sourcePath": "/home/karl/Documents/SoftwareDevelopment/GitHub/coinbase-login/truffle/contracts/AtlanticId.sol",
  "compiler": {
    "name": "solc",
    "version": "0.8.11+commit.d7f03943.Emscripten.clang"
  },
  "schemaVersion": "3.4.3",
  "updatedAt": "2022-02-21T21:32:33.791Z",
  "networkType": "ethereum",
  "devdoc": {
    "kind": "dev",
    "methods": {
      "approve(address,uint256)": {
        "details": "See {IERC721-approve}."
      },
      "balanceOf(address)": {
        "details": "See {IERC721-balanceOf}."
      },
      "burn(uint256)": {
        "details": "Burns `tokenId`. See {ERC721-_burn}. Requirements: - The caller must own `tokenId` or be an approved operator."
      },
      "getApproved(uint256)": {
        "details": "See {IERC721-getApproved}."
      },
      "getRoleAdmin(bytes32)": {
        "details": "Returns the admin role that controls `role`. See {grantRole} and {revokeRole}. To change a role's admin, use {_setRoleAdmin}."
      },
      "getRoleMember(bytes32,uint256)": {
        "details": "Returns one of the accounts that have `role`. `index` must be a value between 0 and {getRoleMemberCount}, non-inclusive. Role bearers are not sorted in any particular way, and their ordering may change at any point. WARNING: When using {getRoleMember} and {getRoleMemberCount}, make sure you perform all queries on the same block. See the following https://forum.openzeppelin.com/t/iterating-over-elements-on-enumerableset-in-openzeppelin-contracts/2296[forum post] for more information."
      },
      "getRoleMemberCount(bytes32)": {
        "details": "Returns the number of accounts that have `role`. Can be used together with {getRoleMember} to enumerate all bearers of a role."
      },
      "grantRole(bytes32,address)": {
        "details": "Grants `role` to `account`. If `account` had not been already granted `role`, emits a {RoleGranted} event. Requirements: - the caller must have ``role``'s admin role."
      },
      "hasRole(bytes32,address)": {
        "details": "Returns `true` if `account` has been granted `role`."
      },
      "isApprovedForAll(address,address)": {
        "details": "See {IERC721-isApprovedForAll}."
      },
      "mint(string,string,string,string)": {
        "details": "Unpauses all token transfers. See {ERC721Pausable} and {Pausable-_unpause}. Requirements: - the caller must have the `PAUSER_ROLE`. TODO:   - Add approved wallet access by contract owner."
      },
      "name()": {
        "details": "See {IERC721Metadata-name}."
      },
      "ownerOf(uint256)": {
        "details": "See {IERC721-ownerOf}."
      },
      "paused()": {
        "details": "Returns true if the contract is paused, and false otherwise."
      },
      "renounceRole(bytes32,address)": {
        "details": "Revokes `role` from the calling account. Roles are often managed via {grantRole} and {revokeRole}: this function's purpose is to provide a mechanism for accounts to lose their privileges if they are compromised (such as when a trusted device is misplaced). If the calling account had been revoked `role`, emits a {RoleRevoked} event. Requirements: - the caller must be `account`."
      },
      "revokeRole(bytes32,address)": {
        "details": "Revokes `role` from `account`. If `account` had been granted `role`, emits a {RoleRevoked} event. Requirements: - the caller must have ``role``'s admin role."
      },
      "safeTransferFrom(address,address,uint256)": {
        "details": "See {IERC721-safeTransferFrom}."
      },
      "safeTransferFrom(address,address,uint256,bytes)": {
        "details": "See {IERC721-safeTransferFrom}."
      },
      "setApprovalForAll(address,bool)": {
        "details": "See {IERC721-setApprovalForAll}."
      },
      "supportsInterface(bytes4)": {
        "details": "See {IERC165-supportsInterface}."
      },
      "symbol()": {
        "details": "See {IERC721Metadata-symbol}."
      },
      "tokenByIndex(uint256)": {
        "details": "See {IERC721Enumerable-tokenByIndex}."
      },
      "tokenOfOwnerByIndex(address,uint256)": {
        "details": "See {IERC721Enumerable-tokenOfOwnerByIndex}."
      },
      "tokenURI(uint256)": {
        "details": "See {IERC721Metadata-tokenURI}."
      },
      "totalSupply()": {
        "details": "See {IERC721Enumerable-totalSupply}."
      },
      "transferFrom(address,address,uint256)": {
        "details": "See {IERC721-transferFrom}."
      },
      "unpause()": {
        "details": "Unpauses all token transfers. See {ERC721Pausable} and {Pausable-_unpause}. Requirements: - the caller must have the `PAUSER_ROLE`."
      }
    },
    "version": 1
  },
  "userdoc": {
    "events": {
      "Mint(uint256,uint256,uint256)": {
        "notice": "EVENTS "
      }
    },
    "kind": "user",
    "methods": {
      "MINTER_ROLE()": {
        "notice": "--- USER ROLES --- "
      },
      "approveMint(string,address)": {
        "notice": "FUNCTIONS --------- > approveMint() > mint()"
      },
      "constructor": {
        "notice": "CONSTRUCTOR "
      },
      "getUid(uint256)": {
        "notice": "============================== |   NFID SPECIFIC FUNTIONS   | ============================== TODO: Add isValidAid()  - This function could use Chainlink (recommended) to bring in the current date,  or the function could take in what the current date it is (not recommended). TODO: Add getUid()      - Returns AID user ID. TODO: Add getEns() TODO: Add getExchange() TODO: Add getExpry()"
      }
    },
    "notice": "TODO: Add EVENTS EVENT 1] Mint(tokenId) EVENT 2]",
    "version": 1
  }
}