{
  "contractName": "AtlanticId",
  "abi": [
    {
      "inputs": [],
      "stateMutability": "nonpayable",
      "type": "constructor"
    },
    {
      "anonymous": false,
      "inputs": [
        {
          "indexed": true,
          "internalType": "address",
          "name": "owner",
          "type": "address"
        },
        {
          "indexed": true,
          "internalType": "address",
          "name": "approved",
          "type": "address"
        },
        {
          "indexed": true,
          "internalType": "uint256",
          "name": "tokenId",
          "type": "uint256"
        }
      ],
      "name": "Approval",
      "type": "event"
    },
    {
      "anonymous": false,
      "inputs": [
        {
          "indexed": true,
          "internalType": "address",
          "name": "owner",
          "type": "address"
        },
        {
          "indexed": true,
          "internalType": "address",
          "name": "operator",
          "type": "address"
        },
        {
          "indexed": false,
          "internalType": "bool",
          "name": "approved",
          "type": "bool"
        }
      ],
      "name": "ApprovalForAll",
      "type": "event"
    },
    {
      "anonymous": false,
      "inputs": [
        {
          "indexed": false,
          "internalType": "address",
          "name": "account",
          "type": "address"
        }
      ],
      "name": "Paused",
      "type": "event"
    },
    {
      "anonymous": false,
      "inputs": [
        {
          "indexed": true,
          "internalType": "bytes32",
          "name": "role",
          "type": "bytes32"
        },
        {
          "indexed": true,
          "internalType": "bytes32",
          "name": "previousAdminRole",
          "type": "bytes32"
        },
        {
          "indexed": true,
          "internalType": "bytes32",
          "name": "newAdminRole",
          "type": "bytes32"
        }
      ],
      "name": "RoleAdminChanged",
      "type": "event"
    },
    {
      "anonymous": false,
      "inputs": [
        {
          "indexed": true,
          "internalType": "bytes32",
          "name": "role",
          "type": "bytes32"
        },
        {
          "indexed": true,
          "internalType": "address",
          "name": "account",
          "type": "address"
        },
        {
          "indexed": true,
          "internalType": "address",
          "name": "sender",
          "type": "address"
        }
      ],
      "name": "RoleGranted",
      "type": "event"
    },
    {
      "anonymous": false,
      "inputs": [
        {
          "indexed": true,
          "internalType": "bytes32",
          "name": "role",
          "type": "bytes32"
        },
        {
          "indexed": true,
          "internalType": "address",
          "name": "account",
          "type": "address"
        },
        {
          "indexed": true,
          "internalType": "address",
          "name": "sender",
          "type": "address"
        }
      ],
      "name": "RoleRevoked",
      "type": "event"
    },
    {
      "anonymous": false,
      "inputs": [
        {
          "indexed": true,
          "internalType": "address",
          "name": "from",
          "type": "address"
        },
        {
          "indexed": true,
          "internalType": "address",
          "name": "to",
          "type": "address"
        },
        {
          "indexed": true,
          "internalType": "uint256",
          "name": "tokenId",
          "type": "uint256"
        }
      ],
      "name": "Transfer",
      "type": "event"
    },
    {
      "anonymous": false,
      "inputs": [
        {
          "indexed": false,
          "internalType": "address",
          "name": "account",
          "type": "address"
        }
      ],
      "name": "Unpaused",
      "type": "event"
    },
    {
      "inputs": [],
      "name": "DEFAULT_ADMIN_ROLE",
      "outputs": [
        {
          "internalType": "bytes32",
          "name": "",
          "type": "bytes32"
        }
      ],
      "stateMutability": "view",
      "type": "function",
      "constant": true
    },
    {
      "inputs": [],
      "name": "MINTER_ROLE",
      "outputs": [
        {
          "internalType": "bytes32",
          "name": "",
          "type": "bytes32"
        }
      ],
      "stateMutability": "view",
      "type": "function",
      "constant": true
    },
    {
      "inputs": [],
      "name": "PAUSER_ROLE",
      "outputs": [
        {
          "internalType": "bytes32",
          "name": "",
          "type": "bytes32"
        }
      ],
      "stateMutability": "view",
      "type": "function",
      "constant": true
    },
    {
      "inputs": [
        {
          "internalType": "address",
          "name": "to",
          "type": "address"
        },
        {
          "internalType": "uint256",
          "name": "tokenId",
          "type": "uint256"
        }
      ],
      "name": "approve",
      "outputs": [],
      "stateMutability": "nonpayable",
      "type": "function"
    },
    {
      "inputs": [
        {
          "internalType": "address",
          "name": "owner",
          "type": "address"
        }
      ],
      "name": "balanceOf",
      "outputs": [
        {
          "internalType": "uint256",
          "name": "",
          "type": "uint256"
        }
      ],
      "stateMutability": "view",
      "type": "function",
      "constant": true
    },
    {
      "inputs": [
        {
          "internalType": "uint256",
          "name": "tokenId",
          "type": "uint256"
        }
      ],
      "name": "burn",
      "outputs": [],
      "stateMutability": "nonpayable",
      "type": "function"
    },
    {
      "inputs": [
        {
          "internalType": "uint256",
          "name": "tokenId",
          "type": "uint256"
        }
      ],
      "name": "getApproved",
      "outputs": [
        {
          "internalType": "address",
          "name": "",
          "type": "address"
        }
      ],
      "stateMutability": "view",
      "type": "function",
      "constant": true
    },
    {
      "inputs": [
        {
          "internalType": "bytes32",
          "name": "role",
          "type": "bytes32"
        }
      ],
      "name": "getRoleAdmin",
      "outputs": [
        {
          "internalType": "bytes32",
          "name": "",
          "type": "bytes32"
        }
      ],
      "stateMutability": "view",
      "type": "function",
      "constant": true
    },
    {
      "inputs": [
        {
          "internalType": "bytes32",
          "name": "role",
          "type": "bytes32"
        },
        {
          "internalType": "uint256",
          "name": "index",
          "type": "uint256"
        }
      ],
      "name": "getRoleMember",
      "outputs": [
        {
          "internalType": "address",
          "name": "",
          "type": "address"
        }
      ],
      "stateMutability": "view",
      "type": "function",
      "constant": true
    },
    {
      "inputs": [
        {
          "internalType": "bytes32",
          "name": "role",
          "type": "bytes32"
        }
      ],
      "name": "getRoleMemberCount",
      "outputs": [
        {
          "internalType": "uint256",
          "name": "",
          "type": "uint256"
        }
      ],
      "stateMutability": "view",
      "type": "function",
      "constant": true
    },
    {
      "inputs": [
        {
          "internalType": "bytes32",
          "name": "role",
          "type": "bytes32"
        },
        {
          "internalType": "address",
          "name": "account",
          "type": "address"
        }
      ],
      "name": "grantRole",
      "outputs": [],
      "stateMutability": "nonpayable",
      "type": "function"
    },
    {
      "inputs": [
        {
          "internalType": "bytes32",
          "name": "role",
          "type": "bytes32"
        },
        {
          "internalType": "address",
          "name": "account",
          "type": "address"
        }
      ],
      "name": "hasRole",
      "outputs": [
        {
          "internalType": "bool",
          "name": "",
          "type": "bool"
        }
      ],
      "stateMutability": "view",
      "type": "function",
      "constant": true
    },
    {
      "inputs": [
        {
          "internalType": "address",
          "name": "owner",
          "type": "address"
        },
        {
          "internalType": "address",
          "name": "operator",
          "type": "address"
        }
      ],
      "name": "isApprovedForAll",
      "outputs": [
        {
          "internalType": "bool",
          "name": "",
          "type": "bool"
        }
      ],
      "stateMutability": "view",
      "type": "function",
      "constant": true
    },
    {
      "inputs": [],
      "name": "name",
      "outputs": [
        {
          "internalType": "string",
          "name": "",
          "type": "string"
        }
      ],
      "stateMutability": "view",
      "type": "function",
      "constant": true
    },
    {
      "inputs": [
        {
          "internalType": "uint256",
          "name": "tokenId",
          "type": "uint256"
        }
      ],
      "name": "ownerOf",
      "outputs": [
        {
          "internalType": "address",
          "name": "",
          "type": "address"
        }
      ],
      "stateMutability": "view",
      "type": "function",
      "constant": true
    },
    {
      "inputs": [],
      "name": "paused",
      "outputs": [
        {
          "internalType": "bool",
          "name": "",
          "type": "bool"
        }
      ],
      "stateMutability": "view",
      "type": "function",
      "constant": true
    },
    {
      "inputs": [
        {
          "internalType": "bytes32",
          "name": "role",
          "type": "bytes32"
        },
        {
          "internalType": "address",
          "name": "account",
          "type": "address"
        }
      ],
      "name": "renounceRole",
      "outputs": [],
      "stateMutability": "nonpayable",
      "type": "function"
    },
    {
      "inputs": [
        {
          "internalType": "bytes32",
          "name": "role",
          "type": "bytes32"
        },
        {
          "internalType": "address",
          "name": "account",
          "type": "address"
        }
      ],
      "name": "revokeRole",
      "outputs": [],
      "stateMutability": "nonpayable",
      "type": "function"
    },
    {
      "inputs": [
        {
          "internalType": "address",
          "name": "from",
          "type": "address"
        },
        {
          "internalType": "address",
          "name": "to",
          "type": "address"
        },
        {
          "internalType": "uint256",
          "name": "tokenId",
          "type": "uint256"
        }
      ],
      "name": "safeTransferFrom",
      "outputs": [],
      "stateMutability": "nonpayable",
      "type": "function"
    },
    {
      "inputs": [
        {
          "internalType": "address",
          "name": "from",
          "type": "address"
        },
        {
          "internalType": "address",
          "name": "to",
          "type": "address"
        },
        {
          "internalType": "uint256",
          "name": "tokenId",
          "type": "uint256"
        },
        {
          "internalType": "bytes",
          "name": "_data",
          "type": "bytes"
        }
      ],
      "name": "safeTransferFrom",
      "outputs": [],
      "stateMutability": "nonpayable",
      "type": "function"
    },
    {
      "inputs": [
        {
          "internalType": "address",
          "name": "operator",
          "type": "address"
        },
        {
          "internalType": "bool",
          "name": "approved",
          "type": "bool"
        }
      ],
      "name": "setApprovalForAll",
      "outputs": [],
      "stateMutability": "nonpayable",
      "type": "function"
    },
    {
      "inputs": [],
      "name": "symbol",
      "outputs": [
        {
          "internalType": "string",
          "name": "",
          "type": "string"
        }
      ],
      "stateMutability": "view",
      "type": "function",
      "constant": true
    },
    {
      "inputs": [
        {
          "internalType": "uint256",
          "name": "index",
          "type": "uint256"
        }
      ],
      "name": "tokenByIndex",
      "outputs": [
        {
          "internalType": "uint256",
          "name": "",
          "type": "uint256"
        }
      ],
      "stateMutability": "view",
      "type": "function",
      "constant": true
    },
    {
      "inputs": [
        {
          "internalType": "address",
          "name": "owner",
          "type": "address"
        },
        {
          "internalType": "uint256",
          "name": "index",
          "type": "uint256"
        }
      ],
      "name": "tokenOfOwnerByIndex",
      "outputs": [
        {
          "internalType": "uint256",
          "name": "",
          "type": "uint256"
        }
      ],
      "stateMutability": "view",
      "type": "function",
      "constant": true
    },
    {
      "inputs": [
        {
          "internalType": "uint256",
          "name": "tokenId",
          "type": "uint256"
        }
      ],
      "name": "tokenURI",
      "outputs": [
        {
          "internalType": "string",
          "name": "",
          "type": "string"
        }
      ],
      "stateMutability": "view",
      "type": "function",
      "constant": true
    },
    {
      "inputs": [],
      "name": "totalSupply",
      "outputs": [
        {
          "internalType": "uint256",
          "name": "",
          "type": "uint256"
        }
      ],
      "stateMutability": "view",
      "type": "function",
      "constant": true
    },
    {
      "inputs": [
        {
          "internalType": "address",
          "name": "from",
          "type": "address"
        },
        {
          "internalType": "address",
          "name": "to",
          "type": "address"
        },
        {
          "internalType": "uint256",
          "name": "tokenId",
          "type": "uint256"
        }
      ],
      "name": "transferFrom",
      "outputs": [],
      "stateMutability": "nonpayable",
      "type": "function"
    },
    {
      "inputs": [
        {
          "internalType": "string",
          "name": "a_name",
          "type": "string"
        },
        {
          "internalType": "string",
          "name": "a_uid",
          "type": "string"
        },
        {
          "internalType": "string",
          "name": "a_eid",
          "type": "string"
        },
        {
          "internalType": "string",
          "name": "a_exchange",
          "type": "string"
        }
      ],
      "name": "mint",
      "outputs": [],
      "stateMutability": "nonpayable",
      "type": "function"
    },
    {
      "inputs": [
        {
          "internalType": "uint256",
          "name": "timestamp",
          "type": "uint256"
        }
      ],
      "name": "timestampToDate",
      "outputs": [
        {
          "internalType": "uint16",
          "name": "year",
          "type": "uint16"
        },
        {
          "internalType": "uint8",
          "name": "month",
          "type": "uint8"
        },
        {
          "internalType": "uint8",
          "name": "day",
          "type": "uint8"
        }
      ],
      "stateMutability": "pure",
      "type": "function",
      "constant": true
    },
    {
      "inputs": [
        {
          "internalType": "bytes4",
          "name": "interfaceId",
          "type": "bytes4"
        }
      ],
      "name": "supportsInterface",
      "outputs": [
        {
          "internalType": "bool",
          "name": "",
          "type": "bool"
        }
      ],
      "stateMutability": "view",
      "type": "function",
      "constant": true
    },
    {
      "inputs": [],
      "name": "unpause",
      "outputs": [],
      "stateMutability": "nonpayable",
      "type": "function"
    },
    {
      "inputs": [
        {
          "internalType": "uint256",
          "name": "_tokenId",
          "type": "uint256"
        }
      ],
      "name": "getExpiry",
      "outputs": [
        {
          "internalType": "uint8",
          "name": "day",
          "type": "uint8"
        },
        {
          "internalType": "uint8",
          "name": "month",
          "type": "uint8"
        },
        {
          "internalType": "uint16",
          "name": "year",
          "type": "uint16"
        }
      ],
      "stateMutability": "view",
      "type": "function",
      "constant": true
    }
  ],
  "bytecode": "0x60806040523480156200001157600080fd5b506040518060400160405280600a81526020017f41746c616e7469634964000000000000000000000000000000000000000000008152506040518060400160405280600381526020017f4149440000000000000000000000000000000000000000000000000000000000815250816002908051906020019062000096929190620000d3565b508060039080519060200190620000af929190620000d3565b5050506000600c60006101000a81548160ff021916908315150217905550620001e8565b828054620000e190620001b2565b90600052602060002090601f01602090048101928262000105576000855562000151565b82601f106200012057805160ff191683800117855562000151565b8280016001018555821562000151579182015b828111156200015057825182559160200191906001019062000133565b5b50905062000160919062000164565b5090565b5b808211156200017f57600081600090555060010162000165565b5090565b7f4e487b7100000000000000000000000000000000000000000000000000000000600052602260045260246000fd5b60006002820490506001821680620001cb57607f821691505b60208210811415620001e257620001e162000183565b5b50919050565b61509080620001f86000396000f3fe608060405234801561001057600080fd5b506004361061020d576000357c0100000000000000000000000000000000000000000000000000000000900480635c975abb1161012c578063b88d4fde116100bf578063d547741f1161008e578063d547741f1461060e578063de5101af1461062a578063e63ab1e91461065c578063e985e9c51461067a5761020d565b8063b88d4fde14610574578063c87b56dd14610590578063ca15c873146105c0578063d5391393146105f05761020d565b806391d14854116100fb57806391d14854146104ec57806395d89b411461051c578063a217fddf1461053a578063a22cb465146105585761020d565b80635c975abb1461043e5780636352211e1461045c57806370a082311461048c5780639010d07c146104bc5761020d565b8063248a9ca3116101a45780633f4ba83a116101735780633f4ba83a146103cc57806342842e0e146103d657806342966c68146103f25780634f6ccce71461040e5761020d565b8063248a9ca3146103345780632f2ff15d146103645780632f745c591461038057806336568abe146103b05761020d565b8063095ea7b3116101e0578063095ea7b3146102ac57806313c72608146102c857806318160ddd146102fa57806323b872dd146103185761020d565b806301ffc9a71461021257806302341c711461024257806306fdde031461025e578063081812fc1461027c575b600080fd5b61022c60048036038101906102279190613654565b6106aa565b604051610239919061369c565b60405180910390f35b61025c600480360381019061025791906137fd565b6106bc565b005b6102666108cc565b604051610273919061395c565b60405180910390f35b610296600480360381019061029191906139b4565b61095e565b6040516102a39190613a22565b60405180910390f35b6102c660048036038101906102c19190613a69565b6109e3565b005b6102e260048036038101906102dd91906139b4565b610afb565b6040516102f193929190613ae2565b60405180910390f35b610302610dfe565b60405161030f9190613b28565b60405180910390f35b610332600480360381019061032d9190613b43565b610e0b565b005b61034e60048036038101906103499190613bcc565b610e6b565b60405161035b9190613c08565b60405180910390f35b61037e60048036038101906103799190613c23565b610e8a565b005b61039a60048036038101906103959190613a69565b610eb3565b6040516103a79190613b28565b60405180910390f35b6103ca60048036038101906103c59190613c23565b610f58565b005b6103d4610fdb565b005b6103f060048036038101906103eb9190613b43565b611055565b005b61040c600480360381019061040791906139b4565b611075565b005b610428600480360381019061042391906139b4565b6110d1565b6040516104359190613b28565b60405180910390f35b610446611142565b604051610453919061369c565b60405180910390f35b610476600480360381019061047191906139b4565b611159565b6040516104839190613a22565b60405180910390f35b6104a660048036038101906104a19190613c63565b61120b565b6040516104b39190613b28565b60405180910390f35b6104d660048036038101906104d19190613c90565b6112c3565b6040516104e39190613a22565b60405180910390f35b61050660048036038101906105019190613c23565b6112f2565b604051610513919061369c565b60405180910390f35b61052461135c565b604051610531919061395c565b60405180910390f35b6105426113ee565b60405161054f9190613c08565b60405180910390f35b610572600480360381019061056d9190613cfc565b6113f6565b005b61058e60048036038101906105899190613ddd565b61140c565b005b6105aa60048036038101906105a591906139b4565b61146e565b6040516105b7919061395c565b60405180910390f35b6105da60048036038101906105d59190613bcc565b611515565b6040516105e79190613b28565b60405180910390f35b6105f8611539565b6040516106059190613c08565b60405180910390f35b61062860048036038101906106239190613c23565b61155d565b005b610644600480360381019061063f91906139b4565b611586565b60405161065393929190613e60565b60405180910390f35b61066461177c565b6040516106719190613c08565b60405180910390f35b610694600480360381019061068f9190613e97565b6117a0565b6040516106a1919061369c565b60405180910390f35b60006106b582611834565b9050919050565b6106ed7f9f2df0fed2c77648de5860a4cc508cd0818c85b8b8a1ab4ceeef8d981c8956a66106e86118ae565b6112f2565b61072c576040517f08c379a000000000000000000000000000000000000000000000000000000000815260040161072390613f49565b60405180910390fd5b600080600061073a42611586565b925092509250600060018461074f9190613f98565b9050600060405180606001604052808361ffff1681526020018560ff1681526020018460ff1681525090506040518060a001604052808a815260200189815260200188815260200187815260200182815250600f60006107af600d6118b6565b815260200190815260200160002060008201518160000190805190602001906107d9929190613545565b5060208201518160010190805190602001906107f6929190613545565b506040820151816002019080519060200190610813929190613545565b506060820151816003019080519060200190610830929190613545565b5060808201518160040160008201518160000160006101000a81548161ffff021916908361ffff16021790555060208201518160000160026101000a81548160ff021916908360ff16021790555060408201518160000160036101000a81548160ff021916908360ff16021790555050509050506108b7336108b2600d6118b6565b6118c4565b6108c1600d6118e2565b505050505050505050565b6060600280546108db90613fff565b80601f016020809104026020016040519081016040528092919081815260200182805461090790613fff565b80156109545780601f1061092957610100808354040283529160200191610954565b820191906000526020600020905b81548152906001019060200180831161093757829003601f168201915b5050505050905090565b6000610969826118f8565b6109a8576040517f08c379a000000000000000000000000000000000000000000000000000000000815260040161099f906140a3565b60405180910390fd5b6006600083815260200190815260200160002060009054906101000a900473ffffffffffffffffffffffffffffffffffffffff169050919050565b60006109ee82611159565b90508073ffffffffffffffffffffffffffffffffffffffff168373ffffffffffffffffffffffffffffffffffffffff161415610a5f576040517f08c379a0000000000000000000000000000000000000000000000000000000008152600401610a5690614135565b60405180910390fd5b8073ffffffffffffffffffffffffffffffffffffffff16610a7e6118ae565b73ffffffffffffffffffffffffffffffffffffffff161480610aad5750610aac81610aa76118ae565b6117a0565b5b610aec576040517f08c379a0000000000000000000000000000000000000000000000000000000008152600401610ae3906141c7565b60405180910390fd5b610af68383611964565b505050565b600080600080600f60008681526020019081526020016000206040518060a0016040529081600082018054610b2f90613fff565b80601f0160208091040260200160405190810160405280929190818152602001828054610b5b90613fff565b8015610ba85780601f10610b7d57610100808354040283529160200191610ba8565b820191906000526020600020905b815481529060010190602001808311610b8b57829003601f168201915b50505050508152602001600182018054610bc190613fff565b80601f0160208091040260200160405190810160405280929190818152602001828054610bed90613fff565b8015610c3a5780601f10610c0f57610100808354040283529160200191610c3a565b820191906000526020600020905b815481529060010190602001808311610c1d57829003601f168201915b50505050508152602001600282018054610c5390613fff565b80601f0160208091040260200160405190810160405280929190818152602001828054610c7f90613fff565b8015610ccc5780601f10610ca157610100808354040283529160200191610ccc565b820191906000526020600020905b815481529060010190602001808311610caf57829003601f168201915b50505050508152602001600382018054610ce590613fff565b80601f0160208091040260200160405190810160405280929190818152602001828054610d1190613fff565b8015610d5e5780601f10610d3357610100808354040283529160200191610d5e565b820191906000526020600020905b815481529060010190602001808311610d4157829003601f168201915b50505050508152602001600482016040518060600160405290816000820160009054906101000a900461ffff1661ffff1661ffff1681526020016000820160029054906101000a900460ff1660ff1660ff1681526020016000820160039054906101000a900460ff1660ff1660ff168152505081525050905060008160800151905080604001518160200151826000015194509450945050509193909250565b6000600a80549050905090565b610e1c610e166118ae565b82611a1d565b610e5b576040517f08c379a0000000000000000000000000000000000000000000000000000000008152600401610e5290614259565b60405180910390fd5b610e66838383611afb565b505050565b6000806000838152602001908152602001600020600101549050919050565b610e9382610e6b565b610ea481610e9f6118ae565b611d57565b610eae8383611df5565b505050565b6000610ebe8361120b565b8210610eff576040517f08c379a0000000000000000000000000000000000000000000000000000000008152600401610ef6906142eb565b60405180910390fd5b600860008473ffffffffffffffffffffffffffffffffffffffff1673ffffffffffffffffffffffffffffffffffffffff168152602001908152602001600020600083815260200190815260200160002054905092915050565b610f606118ae565b73ffffffffffffffffffffffffffffffffffffffff168173ffffffffffffffffffffffffffffffffffffffff1614610fcd576040517f08c379a0000000000000000000000000000000000000000000000000000000008152600401610fc49061437d565b60405180910390fd5b610fd78282611e29565b5050565b61100c7f65d7a28e3265b37a6474929f336521b332c1681b933f6cb9f3376673440d862a6110076118ae565b6112f2565b61104b576040517f08c379a00000000000000000000000000000000000000000000000000000000081526004016110429061440f565b60405180910390fd5b611053611e5d565b565b6110708383836040518060200160405280600081525061140c565b505050565b6110866110806118ae565b82611a1d565b6110c5576040517f08c379a00000000000000000000000000000000000000000000000000000000081526004016110bc906144a1565b60405180910390fd5b6110ce81611eff565b50565b60006110db610dfe565b821061111c576040517f08c379a000000000000000000000000000000000000000000000000000000000815260040161111390614533565b60405180910390fd5b600a82815481106111305761112f614553565b5b90600052602060002001549050919050565b6000600c60009054906101000a900460ff16905090565b6000806004600084815260200190815260200160002060009054906101000a900473ffffffffffffffffffffffffffffffffffffffff169050600073ffffffffffffffffffffffffffffffffffffffff168173ffffffffffffffffffffffffffffffffffffffff161415611202576040517f08c379a00000000000000000000000000000000000000000000000000000000081526004016111f9906145f4565b60405180910390fd5b80915050919050565b60008073ffffffffffffffffffffffffffffffffffffffff168273ffffffffffffffffffffffffffffffffffffffff16141561127c576040517f08c379a000000000000000000000000000000000000000000000000000000000815260040161127390614686565b60405180910390fd5b600560008373ffffffffffffffffffffffffffffffffffffffff1673ffffffffffffffffffffffffffffffffffffffff168152602001908152602001600020549050919050565b60006112ea826001600086815260200190815260200160002061201090919063ffffffff16565b905092915050565b600080600084815260200190815260200160002060000160008373ffffffffffffffffffffffffffffffffffffffff1673ffffffffffffffffffffffffffffffffffffffff16815260200190815260200160002060009054906101000a900460ff16905092915050565b60606003805461136b90613fff565b80601f016020809104026020016040519081016040528092919081815260200182805461139790613fff565b80156113e45780601f106113b9576101008083540402835291602001916113e4565b820191906000526020600020905b8154815290600101906020018083116113c757829003601f168201915b5050505050905090565b600060010281565b6114086114016118ae565b838361202b565b5050565b61141d6114176118ae565b83611a1d565b61145c576040517f08c379a000000000000000000000000000000000000000000000000000000000815260040161145390614259565b60405180910390fd5b61146884848484612198565b50505050565b6060611479826118f8565b6114b8576040517f08c379a00000000000000000000000000000000000000000000000000000000081526004016114af90614718565b60405180910390fd5b60006114c26121f4565b905060008151116114e2576040518060200160405280600081525061150d565b806114ec84612286565b6040516020016114fd929190614774565b6040516020818303038152906040525b915050919050565b600061153260016000848152602001908152602001600020612406565b9050919050565b7f9f2df0fed2c77648de5860a4cc508cd0818c85b8b8a1ab4ceeef8d981c8956a681565b61156682610e6b565b611577816115726118ae565b611d57565b6115818383611e29565b505050565b600080600080620afa6c620151808661159f91906147c7565b6115a991906147f8565b9050600062023ab160008310156115ce5762023ab0836115c9919061484e565b6115d0565b825b6115da91906147c7565b9050600062023ab1826115ed9190614882565b836115f8919061484e565b9050600061016d62023ab08361160e91906147c7565b618eac8461161c91906147c7565b6105b48561162a91906147c7565b85611635919061484e565b61163f91906147f8565b611649919061484e565b61165391906147c7565b9050600060648261166491906147c7565b60048361167191906147c7565b8361016d61167f9190614882565b61168991906147f8565b611693919061484e565b8361169e919061484e565b90506000609960028360056116b39190614882565b6116bd91906147f8565b6116c791906147c7565b90506001600560028360996116dc9190614882565b6116e691906147f8565b6116f091906147c7565b836116fb919061484e565b61170591906147f8565b9650600a81106117215760098161171c919061484e565b61172f565b60038161172e91906147f8565b5b975060028860ff161115611744576000611747565b60015b60ff16610190866117589190614882565b8461176391906147f8565b61176d91906147f8565b98505050505050509193909250565b7f65d7a28e3265b37a6474929f336521b332c1681b933f6cb9f3376673440d862a81565b6000600760008473ffffffffffffffffffffffffffffffffffffffff1673ffffffffffffffffffffffffffffffffffffffff16815260200190815260200160002060008373ffffffffffffffffffffffffffffffffffffffff1673ffffffffffffffffffffffffffffffffffffffff16815260200190815260200160002060009054906101000a900460ff16905092915050565b60007f780e9d63000000000000000000000000000000000000000000000000000000007bffffffffffffffffffffffffffffffffffffffffffffffffffffffff1916827bffffffffffffffffffffffffffffffffffffffffffffffffffffffff191614806118a757506118a68261241b565b5b9050919050565b600033905090565b600081600001549050919050565b6118de8282604051806020016040528060008152506124fd565b5050565b6001816000016000828254019250508190555050565b60008073ffffffffffffffffffffffffffffffffffffffff166004600084815260200190815260200160002060009054906101000a900473ffffffffffffffffffffffffffffffffffffffff1673ffffffffffffffffffffffffffffffffffffffff1614159050919050565b816006600083815260200190815260200160002060006101000a81548173ffffffffffffffffffffffffffffffffffffffff021916908373ffffffffffffffffffffffffffffffffffffffff160217905550808273ffffffffffffffffffffffffffffffffffffffff166119d783611159565b73ffffffffffffffffffffffffffffffffffffffff167f8c5be1e5ebec7d5bd14f71427d1e84f3dd0314c0f7b2291e5b200ac8c7c3b92560405160405180910390a45050565b6000611a28826118f8565b611a67576040517f08c379a0000000000000000000000000000000000000000000000000000000008152600401611a5e9061494e565b60405180910390fd5b6000611a7283611159565b90508073ffffffffffffffffffffffffffffffffffffffff168473ffffffffffffffffffffffffffffffffffffffff161480611ae157508373ffffffffffffffffffffffffffffffffffffffff16611ac98461095e565b73ffffffffffffffffffffffffffffffffffffffff16145b80611af25750611af181856117a0565b5b91505092915050565b8273ffffffffffffffffffffffffffffffffffffffff16611b1b82611159565b73ffffffffffffffffffffffffffffffffffffffff1614611b71576040517f08c379a0000000000000000000000000000000000000000000000000000000008152600401611b68906149e0565b60405180910390fd5b600073ffffffffffffffffffffffffffffffffffffffff168273ffffffffffffffffffffffffffffffffffffffff161415611be1576040517f08c379a0000000000000000000000000000000000000000000000000000000008152600401611bd890614a72565b60405180910390fd5b611bec838383612558565b611bf7600082611964565b6001600560008573ffffffffffffffffffffffffffffffffffffffff1673ffffffffffffffffffffffffffffffffffffffff1681526020019081526020016000206000828254611c47919061484e565b925050819055506001600560008473ffffffffffffffffffffffffffffffffffffffff1673ffffffffffffffffffffffffffffffffffffffff1681526020019081526020016000206000828254611c9e91906147f8565b92505081905550816004600083815260200190815260200160002060006101000a81548173ffffffffffffffffffffffffffffffffffffffff021916908373ffffffffffffffffffffffffffffffffffffffff160217905550808273ffffffffffffffffffffffffffffffffffffffff168473ffffffffffffffffffffffffffffffffffffffff167fddf252ad1be2c89b69c2b068fc378daa952ba7f163c4a11628f55a4df523b3ef60405160405180910390a4505050565b611d6182826112f2565b611df157611d868173ffffffffffffffffffffffffffffffffffffffff166014612568565b611d9583600190046020612568565b604051602001611da6929190614b2a565b6040516020818303038152906040526040517f08c379a0000000000000000000000000000000000000000000000000000000008152600401611de8919061395c565b60405180910390fd5b5050565b611dff82826127cb565b611e2481600160008581526020019081526020016000206128ab90919063ffffffff16565b505050565b611e3382826128db565b611e5881600160008581526020019081526020016000206129bc90919063ffffffff16565b505050565b611e65611142565b611ea4576040517f08c379a0000000000000000000000000000000000000000000000000000000008152600401611e9b90614bb0565b60405180910390fd5b6000600c60006101000a81548160ff0219169083151502179055507f5db9ee0a495bf2e6ff9c91a7834c1ba4fdd244a5e8aa4e537bd38aeae4b073aa611ee86118ae565b604051611ef59190613a22565b60405180910390a1565b6000611f0a82611159565b9050611f1881600084612558565b611f23600083611964565b6001600560008373ffffffffffffffffffffffffffffffffffffffff1673ffffffffffffffffffffffffffffffffffffffff1681526020019081526020016000206000828254611f73919061484e565b925050819055506004600083815260200190815260200160002060006101000a81549073ffffffffffffffffffffffffffffffffffffffff021916905581600073ffffffffffffffffffffffffffffffffffffffff168273ffffffffffffffffffffffffffffffffffffffff167fddf252ad1be2c89b69c2b068fc378daa952ba7f163c4a11628f55a4df523b3ef60405160405180910390a45050565b600061201f83600001836129ec565b60019004905092915050565b8173ffffffffffffffffffffffffffffffffffffffff168373ffffffffffffffffffffffffffffffffffffffff16141561209a576040517f08c379a000000000000000000000000000000000000000000000000000000000815260040161209190614c1c565b60405180910390fd5b80600760008573ffffffffffffffffffffffffffffffffffffffff1673ffffffffffffffffffffffffffffffffffffffff16815260200190815260200160002060008473ffffffffffffffffffffffffffffffffffffffff1673ffffffffffffffffffffffffffffffffffffffff16815260200190815260200160002060006101000a81548160ff0219169083151502179055508173ffffffffffffffffffffffffffffffffffffffff168373ffffffffffffffffffffffffffffffffffffffff167f17307eab39ab6107e8899845ad3d59bd9653f200f220920489ca2b5937696c318360405161218b919061369c565b60405180910390a3505050565b6121a3848484611afb565b6121af84848484612a17565b6121ee576040517f08c379a00000000000000000000000000000000000000000000000000000000081526004016121e590614cae565b60405180910390fd5b50505050565b6060600e805461220390613fff565b80601f016020809104026020016040519081016040528092919081815260200182805461222f90613fff565b801561227c5780601f106122515761010080835404028352916020019161227c565b820191906000526020600020905b81548152906001019060200180831161225f57829003601f168201915b5050505050905090565b606060008214156122ce576040518060400160405280600181526020017f30000000000000000000000000000000000000000000000000000000000000008152509050612401565b600082905060005b600082146123005780806122e990614cce565b915050600a826122f991906147c7565b91506122d6565b60008167ffffffffffffffff81111561231c5761231b6136d2565b5b6040519080825280601f01601f19166020018201604052801561234e5781602001600182028036833780820191505090505b5090505b600085146123fa57600182612367919061484e565b9150600a856123769190614d17565b603061238291906147f8565b7f0100000000000000000000000000000000000000000000000000000000000000028183815181106123b7576123b6614553565b5b60200101907effffffffffffffffffffffffffffffffffffffffffffffffffffffffffffff1916908160001a905350600a856123f391906147c7565b9450612352565b8093505050505b919050565b600061241482600001612bd7565b9050919050565b60007f80ac58cd000000000000000000000000000000000000000000000000000000007bffffffffffffffffffffffffffffffffffffffffffffffffffffffff1916827bffffffffffffffffffffffffffffffffffffffffffffffffffffffff191614806124e657507f5b5e139f000000000000000000000000000000000000000000000000000000007bffffffffffffffffffffffffffffffffffffffffffffffffffffffff1916827bffffffffffffffffffffffffffffffffffffffffffffffffffffffff1916145b806124f657506124f582612be8565b5b9050919050565b6125078383612c62565b6125146000848484612a17565b612553576040517f08c379a000000000000000000000000000000000000000000000000000000000815260040161254a90614cae565b60405180910390fd5b505050565b612563838383612e30565b505050565b60606000600283600261257b9190614882565b61258591906147f8565b67ffffffffffffffff81111561259e5761259d6136d2565b5b6040519080825280601f01601f1916602001820160405280156125d05781602001600182028036833780820191505090505b5090507f30000000000000000000000000000000000000000000000000000000000000008160008151811061260857612607614553565b5b60200101907effffffffffffffffffffffffffffffffffffffffffffffffffffffffffffff1916908160001a9053507f78000000000000000000000000000000000000000000000000000000000000008160018151811061266c5761266b614553565b5b60200101907effffffffffffffffffffffffffffffffffffffffffffffffffffffffffffff1916908160001a905350600060018460026126ac9190614882565b6126b691906147f8565b90505b600181111561277d577f3031323334353637383961626364656600000000000000000000000000000000600f8616601081106126f8576126f7614553565b5b1a7f01000000000000000000000000000000000000000000000000000000000000000282828151811061272e5761272d614553565b5b60200101907effffffffffffffffffffffffffffffffffffffffffffffffffffffffffffff1916908160001a905350600485908060020a820491505094508061277690614d48565b90506126b9565b50600084146127c1576040517f08c379a00000000000000000000000000000000000000000000000000000000081526004016127b890614dbe565b60405180910390fd5b8091505092915050565b6127d582826112f2565b6128a757600160008084815260200190815260200160002060000160008373ffffffffffffffffffffffffffffffffffffffff1673ffffffffffffffffffffffffffffffffffffffff16815260200190815260200160002060006101000a81548160ff02191690831515021790555061284c6118ae565b73ffffffffffffffffffffffffffffffffffffffff168173ffffffffffffffffffffffffffffffffffffffff16837f2f8788117e7eff1d82e926ec794901d17c78024a50270940304540a733656f0d60405160405180910390a45b5050565b60006128d3836000018373ffffffffffffffffffffffffffffffffffffffff16600102612e88565b905092915050565b6128e582826112f2565b156129b857600080600084815260200190815260200160002060000160008373ffffffffffffffffffffffffffffffffffffffff1673ffffffffffffffffffffffffffffffffffffffff16815260200190815260200160002060006101000a81548160ff02191690831515021790555061295d6118ae565b73ffffffffffffffffffffffffffffffffffffffff168173ffffffffffffffffffffffffffffffffffffffff16837ff6391f5c32d9c69d2a47ea670b442974b53935d1edc7fd64eb21e047a839171b60405160405180910390a45b5050565b60006129e4836000018373ffffffffffffffffffffffffffffffffffffffff16600102612ef8565b905092915050565b6000826000018281548110612a0457612a03614553565b5b9060005260206000200154905092915050565b6000612a388473ffffffffffffffffffffffffffffffffffffffff1661300c565b15612bca578373ffffffffffffffffffffffffffffffffffffffff1663150b7a02612a616118ae565b8786866040518563ffffffff167c0100000000000000000000000000000000000000000000000000000000028152600401612a9f9493929190614e33565b6020604051808303816000875af1925050508015612adb57506040513d601f19601f82011682018060405250810190612ad89190614e94565b60015b612b5e573d8060008114612b0b576040519150601f19603f3d011682016040523d82523d6000602084013e612b10565b606091505b50600081511415612b56576040517f08c379a0000000000000000000000000000000000000000000000000000000008152600401612b4d90614cae565b60405180910390fd5b805181602001fd5b63150b7a027c0100000000000000000000000000000000000000000000000000000000027bffffffffffffffffffffffffffffffffffffffffffffffffffffffff1916817bffffffffffffffffffffffffffffffffffffffffffffffffffffffff191614915050612bcf565b600190505b949350505050565b600081600001805490509050919050565b60007f5a05180f000000000000000000000000000000000000000000000000000000007bffffffffffffffffffffffffffffffffffffffffffffffffffffffff1916827bffffffffffffffffffffffffffffffffffffffffffffffffffffffff19161480612c5b5750612c5a8261301f565b5b9050919050565b600073ffffffffffffffffffffffffffffffffffffffff168273ffffffffffffffffffffffffffffffffffffffff161415612cd2576040517f08c379a0000000000000000000000000000000000000000000000000000000008152600401612cc990614f0d565b60405180910390fd5b612cdb816118f8565b15612d1b576040517f08c379a0000000000000000000000000000000000000000000000000000000008152600401612d1290614f79565b60405180910390fd5b612d2760008383612558565b6001600560008473ffffffffffffffffffffffffffffffffffffffff1673ffffffffffffffffffffffffffffffffffffffff1681526020019081526020016000206000828254612d7791906147f8565b92505081905550816004600083815260200190815260200160002060006101000a81548173ffffffffffffffffffffffffffffffffffffffff021916908373ffffffffffffffffffffffffffffffffffffffff160217905550808273ffffffffffffffffffffffffffffffffffffffff16600073ffffffffffffffffffffffffffffffffffffffff167fddf252ad1be2c89b69c2b068fc378daa952ba7f163c4a11628f55a4df523b3ef60405160405180910390a45050565b612e3b838383613099565b612e43611142565b15612e83576040517f08c379a0000000000000000000000000000000000000000000000000000000008152600401612e7a9061500b565b60405180910390fd5b505050565b6000612e9483836131ad565b612eed578260000182908060018154018082558091505060019003906000526020600020016000909190919091505582600001805490508360010160008481526020019081526020016000208190555060019050612ef2565b600090505b92915050565b60008083600101600084815260200190815260200160002054905060008114613000576000600182612f2a919061484e565b9050600060018660000180549050612f42919061484e565b9050818114612fb1576000866000018281548110612f6357612f62614553565b5b9060005260206000200154905080876000018481548110612f8757612f86614553565b5b90600052602060002001819055508387600101600083815260200190815260200160002081905550505b85600001805480612fc557612fc461502b565b5b600190038181906000526020600020016000905590558560010160008681526020019081526020016000206000905560019350505050613006565b60009150505b92915050565b600080823b905060008111915050919050565b60007f7965db0b000000000000000000000000000000000000000000000000000000007bffffffffffffffffffffffffffffffffffffffffffffffffffffffff1916827bffffffffffffffffffffffffffffffffffffffffffffffffffffffff191614806130925750613091826131d0565b5b9050919050565b6130a483838361323a565b600073ffffffffffffffffffffffffffffffffffffffff168373ffffffffffffffffffffffffffffffffffffffff1614156130e7576130e28161323f565b613126565b8173ffffffffffffffffffffffffffffffffffffffff168373ffffffffffffffffffffffffffffffffffffffff1614613125576131248382613288565b5b5b600073ffffffffffffffffffffffffffffffffffffffff168273ffffffffffffffffffffffffffffffffffffffff16141561316957613164816133f5565b6131a8565b8273ffffffffffffffffffffffffffffffffffffffff168273ffffffffffffffffffffffffffffffffffffffff16146131a7576131a682826134c6565b5b5b505050565b600080836001016000848152602001908152602001600020541415905092915050565b60007f01ffc9a7000000000000000000000000000000000000000000000000000000007bffffffffffffffffffffffffffffffffffffffffffffffffffffffff1916827bffffffffffffffffffffffffffffffffffffffffffffffffffffffff1916149050919050565b505050565b600a80549050600b600083815260200190815260200160002081905550600a81908060018154018082558091505060019003906000526020600020016000909190919091505550565b600060016132958461120b565b61329f919061484e565b9050600060096000848152602001908152602001600020549050818114613384576000600860008673ffffffffffffffffffffffffffffffffffffffff1673ffffffffffffffffffffffffffffffffffffffff168152602001908152602001600020600084815260200190815260200160002054905080600860008773ffffffffffffffffffffffffffffffffffffffff1673ffffffffffffffffffffffffffffffffffffffff168152602001908152602001600020600084815260200190815260200160002081905550816009600083815260200190815260200160002081905550505b6009600084815260200190815260200160002060009055600860008573ffffffffffffffffffffffffffffffffffffffff1673ffffffffffffffffffffffffffffffffffffffff16815260200190815260200160002060008381526020019081526020016000206000905550505050565b60006001600a80549050613409919061484e565b90506000600b60008481526020019081526020016000205490506000600a838154811061343957613438614553565b5b9060005260206000200154905080600a838154811061345b5761345a614553565b5b906000526020600020018190555081600b600083815260200190815260200160002081905550600b600085815260200190815260200160002060009055600a8054806134aa576134a961502b565b5b6001900381819060005260206000200160009055905550505050565b60006134d18361120b565b905081600860008573ffffffffffffffffffffffffffffffffffffffff1673ffffffffffffffffffffffffffffffffffffffff168152602001908152602001600020600083815260200190815260200160002081905550806009600084815260200190815260200160002081905550505050565b82805461355190613fff565b90600052602060002090601f01602090048101928261357357600085556135ba565b82601f1061358c57805160ff19168380011785556135ba565b828001600101855582156135ba579182015b828111156135b957825182559160200191906001019061359e565b5b5090506135c791906135cb565b5090565b5b808211156135e45760008160009055506001016135cc565b5090565b6000604051905090565b600080fd5b600080fd5b60007fffffffff0000000000000000000000000000000000000000000000000000000082169050919050565b613631816135fc565b811461363c57600080fd5b50565b60008135905061364e81613628565b92915050565b60006020828403121561366a576136696135f2565b5b60006136788482850161363f565b91505092915050565b60008115159050919050565b61369681613681565b82525050565b60006020820190506136b1600083018461368d565b92915050565b600080fd5b600080fd5b6000601f19601f8301169050919050565b7f4e487b7100000000000000000000000000000000000000000000000000000000600052604160045260246000fd5b61370a826136c1565b810181811067ffffffffffffffff82111715613729576137286136d2565b5b80604052505050565b600061373c6135e8565b90506137488282613701565b919050565b600067ffffffffffffffff821115613768576137676136d2565b5b613771826136c1565b9050602081019050919050565b82818337600083830152505050565b60006137a061379b8461374d565b613732565b9050828152602081018484840111156137bc576137bb6136bc565b5b6137c784828561377e565b509392505050565b600082601f8301126137e4576137e36136b7565b5b81356137f484826020860161378d565b91505092915050565b60008060008060808587031215613817576138166135f2565b5b600085013567ffffffffffffffff811115613835576138346135f7565b5b613841878288016137cf565b945050602085013567ffffffffffffffff811115613862576138616135f7565b5b61386e878288016137cf565b935050604085013567ffffffffffffffff81111561388f5761388e6135f7565b5b61389b878288016137cf565b925050606085013567ffffffffffffffff8111156138bc576138bb6135f7565b5b6138c8878288016137cf565b91505092959194509250565b600081519050919050565b600082825260208201905092915050565b60005b8381101561390e5780820151818401526020810190506138f3565b8381111561391d576000848401525b50505050565b600061392e826138d4565b61393881856138df565b93506139488185602086016138f0565b613951816136c1565b840191505092915050565b600060208201905081810360008301526139768184613923565b905092915050565b6000819050919050565b6139918161397e565b811461399c57600080fd5b50565b6000813590506139ae81613988565b92915050565b6000602082840312156139ca576139c96135f2565b5b60006139d88482850161399f565b91505092915050565b600073ffffffffffffffffffffffffffffffffffffffff82169050919050565b6000613a0c826139e1565b9050919050565b613a1c81613a01565b82525050565b6000602082019050613a376000830184613a13565b92915050565b613a4681613a01565b8114613a5157600080fd5b50565b600081359050613a6381613a3d565b92915050565b60008060408385031215613a8057613a7f6135f2565b5b6000613a8e85828601613a54565b9250506020613a9f8582860161399f565b9150509250929050565b600060ff82169050919050565b613abf81613aa9565b82525050565b600061ffff82169050919050565b613adc81613ac5565b82525050565b6000606082019050613af76000830186613ab6565b613b046020830185613ab6565b613b116040830184613ad3565b949350505050565b613b228161397e565b82525050565b6000602082019050613b3d6000830184613b19565b92915050565b600080600060608486031215613b5c57613b5b6135f2565b5b6000613b6a86828701613a54565b9350506020613b7b86828701613a54565b9250506040613b8c8682870161399f565b9150509250925092565b6000819050919050565b613ba981613b96565b8114613bb457600080fd5b50565b600081359050613bc681613ba0565b92915050565b600060208284031215613be257613be16135f2565b5b6000613bf084828501613bb7565b91505092915050565b613c0281613b96565b82525050565b6000602082019050613c1d6000830184613bf9565b92915050565b60008060408385031215613c3a57613c396135f2565b5b6000613c4885828601613bb7565b9250506020613c5985828601613a54565b9150509250929050565b600060208284031215613c7957613c786135f2565b5b6000613c8784828501613a54565b91505092915050565b60008060408385031215613ca757613ca66135f2565b5b6000613cb585828601613bb7565b9250506020613cc68582860161399f565b9150509250929050565b613cd981613681565b8114613ce457600080fd5b50565b600081359050613cf681613cd0565b92915050565b60008060408385031215613d1357613d126135f2565b5b6000613d2185828601613a54565b9250506020613d3285828601613ce7565b9150509250929050565b600067ffffffffffffffff821115613d5757613d566136d2565b5b613d60826136c1565b9050602081019050919050565b6000613d80613d7b84613d3c565b613732565b905082815260208101848484011115613d9c57613d9b6136bc565b5b613da784828561377e565b509392505050565b600082601f830112613dc457613dc36136b7565b5b8135613dd4848260208601613d6d565b91505092915050565b60008060008060808587031215613df757613df66135f2565b5b6000613e0587828801613a54565b9450506020613e1687828801613a54565b9350506040613e278782880161399f565b925050606085013567ffffffffffffffff811115613e4857613e476135f7565b5b613e5487828801613daf565b91505092959194509250565b6000606082019050613e756000830186613ad3565b613e826020830185613ab6565b613e8f6040830184613ab6565b949350505050565b60008060408385031215613eae57613ead6135f2565b5b6000613ebc85828601613a54565b9250506020613ecd85828601613a54565b9150509250929050565b7f4552433732315072657365744d696e7465725061757365724175746f49643a2060008201527f6d7573742068617665206d696e74657220726f6c6520746f206d696e74000000602082015250565b6000613f33603d836138df565b9150613f3e82613ed7565b604082019050919050565b60006020820190508181036000830152613f6281613f26565b9050919050565b7f4e487b7100000000000000000000000000000000000000000000000000000000600052601160045260246000fd5b6000613fa382613ac5565b9150613fae83613ac5565b92508261ffff03821115613fc557613fc4613f69565b5b828201905092915050565b7f4e487b7100000000000000000000000000000000000000000000000000000000600052602260045260246000fd5b6000600282049050600182168061401757607f821691505b6020821081141561402b5761402a613fd0565b5b50919050565b7f4552433732313a20617070726f76656420717565727920666f72206e6f6e657860008201527f697374656e7420746f6b656e0000000000000000000000000000000000000000602082015250565b600061408d602c836138df565b915061409882614031565b604082019050919050565b600060208201905081810360008301526140bc81614080565b9050919050565b7f4552433732313a20617070726f76616c20746f2063757272656e74206f776e6560008201527f7200000000000000000000000000000000000000000000000000000000000000602082015250565b600061411f6021836138df565b915061412a826140c3565b604082019050919050565b6000602082019050818103600083015261414e81614112565b9050919050565b7f4552433732313a20617070726f76652063616c6c6572206973206e6f74206f7760008201527f6e6572206e6f7220617070726f76656420666f7220616c6c0000000000000000602082015250565b60006141b16038836138df565b91506141bc82614155565b604082019050919050565b600060208201905081810360008301526141e0816141a4565b9050919050565b7f4552433732313a207472616e736665722063616c6c6572206973206e6f74206f60008201527f776e6572206e6f7220617070726f766564000000000000000000000000000000602082015250565b60006142436031836138df565b915061424e826141e7565b604082019050919050565b6000602082019050818103600083015261427281614236565b9050919050565b7f455243373231456e756d657261626c653a206f776e657220696e646578206f7560008201527f74206f6620626f756e6473000000000000000000000000000000000000000000602082015250565b60006142d5602b836138df565b91506142e082614279565b604082019050919050565b60006020820190508181036000830152614304816142c8565b9050919050565b7f416363657373436f6e74726f6c3a2063616e206f6e6c792072656e6f756e636560008201527f20726f6c657320666f722073656c660000000000000000000000000000000000602082015250565b6000614367602f836138df565b91506143728261430b565b604082019050919050565b600060208201905081810360008301526143968161435a565b9050919050565b7f4552433732315072657365744d696e7465725061757365724175746f49643a2060008201527f6d75737420686176652070617573657220726f6c6520746f20756e7061757365602082015250565b60006143f96040836138df565b91506144048261439d565b604082019050919050565b60006020820190508181036000830152614428816143ec565b9050919050565b7f4552433732314275726e61626c653a2063616c6c6572206973206e6f74206f7760008201527f6e6572206e6f7220617070726f76656400000000000000000000000000000000602082015250565b600061448b6030836138df565b91506144968261442f565b604082019050919050565b600060208201905081810360008301526144ba8161447e565b9050919050565b7f455243373231456e756d657261626c653a20676c6f62616c20696e646578206f60008201527f7574206f6620626f756e64730000000000000000000000000000000000000000602082015250565b600061451d602c836138df565b9150614528826144c1565b604082019050919050565b6000602082019050818103600083015261454c81614510565b9050919050565b7f4e487b7100000000000000000000000000000000000000000000000000000000600052603260045260246000fd5b7f4552433732313a206f776e657220717565727920666f72206e6f6e657869737460008201527f656e7420746f6b656e0000000000000000000000000000000000000000000000602082015250565b60006145de6029836138df565b91506145e982614582565b604082019050919050565b6000602082019050818103600083015261460d816145d1565b9050919050565b7f4552433732313a2062616c616e636520717565727920666f7220746865207a6560008201527f726f206164647265737300000000000000000000000000000000000000000000602082015250565b6000614670602a836138df565b915061467b82614614565b604082019050919050565b6000602082019050818103600083015261469f81614663565b9050919050565b7f4552433732314d657461646174613a2055524920717565727920666f72206e6f60008201527f6e6578697374656e7420746f6b656e0000000000000000000000000000000000602082015250565b6000614702602f836138df565b915061470d826146a6565b604082019050919050565b60006020820190508181036000830152614731816146f5565b9050919050565b600081905092915050565b600061474e826138d4565b6147588185614738565b93506147688185602086016138f0565b80840191505092915050565b60006147808285614743565b915061478c8284614743565b91508190509392505050565b7f4e487b7100000000000000000000000000000000000000000000000000000000600052601260045260246000fd5b60006147d28261397e565b91506147dd8361397e565b9250826147ed576147ec614798565b5b828204905092915050565b60006148038261397e565b915061480e8361397e565b9250827fffffffffffffffffffffffffffffffffffffffffffffffffffffffffffffffff0382111561484357614842613f69565b5b828201905092915050565b60006148598261397e565b91506148648361397e565b92508282101561487757614876613f69565b5b828203905092915050565b600061488d8261397e565b91506148988361397e565b9250817fffffffffffffffffffffffffffffffffffffffffffffffffffffffffffffffff04831182151516156148d1576148d0613f69565b5b828202905092915050565b7f4552433732313a206f70657261746f7220717565727920666f72206e6f6e657860008201527f697374656e7420746f6b656e0000000000000000000000000000000000000000602082015250565b6000614938602c836138df565b9150614943826148dc565b604082019050919050565b600060208201905081810360008301526149678161492b565b9050919050565b7f4552433732313a207472616e73666572206f6620746f6b656e2074686174206960008201527f73206e6f74206f776e0000000000000000000000000000000000000000000000602082015250565b60006149ca6029836138df565b91506149d58261496e565b604082019050919050565b600060208201905081810360008301526149f9816149bd565b9050919050565b7f4552433732313a207472616e7366657220746f20746865207a65726f2061646460008201527f7265737300000000000000000000000000000000000000000000000000000000602082015250565b6000614a5c6024836138df565b9150614a6782614a00565b604082019050919050565b60006020820190508181036000830152614a8b81614a4f565b9050919050565b7f416363657373436f6e74726f6c3a206163636f756e7420000000000000000000600082015250565b6000614ac8601783614738565b9150614ad382614a92565b601782019050919050565b7f206973206d697373696e6720726f6c6520000000000000000000000000000000600082015250565b6000614b14601183614738565b9150614b1f82614ade565b601182019050919050565b6000614b3582614abb565b9150614b418285614743565b9150614b4c82614b07565b9150614b588284614743565b91508190509392505050565b7f5061757361626c653a206e6f7420706175736564000000000000000000000000600082015250565b6000614b9a6014836138df565b9150614ba582614b64565b602082019050919050565b60006020820190508181036000830152614bc981614b8d565b9050919050565b7f4552433732313a20617070726f766520746f2063616c6c657200000000000000600082015250565b6000614c066019836138df565b9150614c1182614bd0565b602082019050919050565b60006020820190508181036000830152614c3581614bf9565b9050919050565b7f4552433732313a207472616e7366657220746f206e6f6e20455243373231526560008201527f63656976657220696d706c656d656e7465720000000000000000000000000000602082015250565b6000614c986032836138df565b9150614ca382614c3c565b604082019050919050565b60006020820190508181036000830152614cc781614c8b565b9050919050565b6000614cd98261397e565b91507fffffffffffffffffffffffffffffffffffffffffffffffffffffffffffffffff821415614d0c57614d0b613f69565b5b600182019050919050565b6000614d228261397e565b9150614d2d8361397e565b925082614d3d57614d3c614798565b5b828206905092915050565b6000614d538261397e565b91506000821415614d6757614d66613f69565b5b600182039050919050565b7f537472696e67733a20686578206c656e67746820696e73756666696369656e74600082015250565b6000614da86020836138df565b9150614db382614d72565b602082019050919050565b60006020820190508181036000830152614dd781614d9b565b9050919050565b600081519050919050565b600082825260208201905092915050565b6000614e0582614dde565b614e0f8185614de9565b9350614e1f8185602086016138f0565b614e28816136c1565b840191505092915050565b6000608082019050614e486000830187613a13565b614e556020830186613a13565b614e626040830185613b19565b8181036060830152614e748184614dfa565b905095945050505050565b600081519050614e8e81613628565b92915050565b600060208284031215614eaa57614ea96135f2565b5b6000614eb884828501614e7f565b91505092915050565b7f4552433732313a206d696e7420746f20746865207a65726f2061646472657373600082015250565b6000614ef76020836138df565b9150614f0282614ec1565b602082019050919050565b60006020820190508181036000830152614f2681614eea565b9050919050565b7f4552433732313a20746f6b656e20616c7265616479206d696e74656400000000600082015250565b6000614f63601c836138df565b9150614f6e82614f2d565b602082019050919050565b60006020820190508181036000830152614f9281614f56565b9050919050565b7f4552433732315061757361626c653a20746f6b656e207472616e73666572207760008201527f68696c6520706175736564000000000000000000000000000000000000000000602082015250565b6000614ff5602b836138df565b915061500082614f99565b604082019050919050565b6000602082019050818103600083015261502481614fe8565b9050919050565b7f4e487b7100000000000000000000000000000000000000000000000000000000600052603160045260246000fdfea2646970667358221220f1ad0bce84ea83058488a304c734b9e6cc9b5cda9ace363943890d992d61d30a64736f6c634300080b0033",
  "immutableReferences": {},
  "source": "// SPDX-License-Identifier: MIT\npragma solidity ^0.8.0;\n\nimport \"../node_modules/@openzeppelin/contracts/token/ERC721/ERC721.sol\";\nimport \"../node_modules/@openzeppelin/contracts/token/ERC721/extensions/ERC721Enumerable.sol\";\nimport \"../node_modules/@openzeppelin/contracts/token/ERC721/extensions/ERC721Burnable.sol\";\nimport \"../node_modules/@openzeppelin/contracts/token/ERC721/extensions/ERC721Pausable.sol\";\nimport \"../node_modules/@openzeppelin/contracts/access/AccessControlEnumerable.sol\";\nimport \"../node_modules/@openzeppelin/contracts/utils/Context.sol\";\nimport \"../node_modules/@openzeppelin/contracts/utils/Counters.sol\";\nimport \"./DateTime.sol\";\n\ncontract AtlanticId is\n    Context,\n    AccessControlEnumerable,\n    ERC721Burnable,\n    ERC721Enumerable,\n    ERC721Pausable\n{\n    using Counters for Counters.Counter;\n    using DateTime for *;\n\n    /** --- USER ROLES --- */\n    bytes32 public constant MINTER_ROLE = keccak256(\"MINTER_ROLE\");\n    bytes32 public constant PAUSER_ROLE = keccak256(\"PAUSER_ROLE\");\n\n    /** LOCAL VARIABLES */\n    Counters.Counter private _tokenIdTracker;   // Token Id Tracker\n    string private _baseTokenURI;               // This URI should point to the public JSON data of the user\n    struct AID {                                // (A)tlantic (Id)entification\n        string name;                            // User's name\n        string uid;                             // User's Identification Number\n        string eid;                             // User's Exchange Identification Number\n        string exchange;                        // Centralized Exchange where user's KYC info is registered\n        Date expiry;                            // Expiration date - period of valid ID\n    }\n    /** The date holds the expiration of the valid AID. */\n    struct Date {\n        uint16 year;\n        uint8 month;\n        uint8 day;\n    }\n    /** --- TokenId mapped to User's Information */\n    mapping(uint256 => AID) id_to_AID;\n\n    constructor() ERC721(\"AtlanticId\",\"AID\") {}\n\n    function _baseURI() internal view virtual override returns (string memory) {\n        return _baseTokenURI;\n    }\n\n\n    /**\n     * @dev Unpauses all token transfers.\n     *\n     * See {ERC721Pausable} and {Pausable-_unpause}.\n     *\n     * Requirements:\n     *\n     * - the caller must have the `PAUSER_ROLE`.\n     */\n    function mint(\n        string memory a_name,\n        string memory a_uid,\n        string memory a_eid,\n        string memory a_exchange\n    ) public virtual {\n        require(hasRole(MINTER_ROLE, _msgSender()), \"ERC721PresetMinterPauserAutoId: must have minter role to mint\");\n        \n        // --- Calculate the Expiration Date ---\n        (uint16 now_year, uint8 now_month, uint8 now_day) = timestampToDate(block.timestamp);\n        uint16 next_year = now_year + 1;\n        Date memory a_expiry = Date({year:next_year, month: now_month, day: now_day});\n        \n        \n        // --- Map the NFT IdNumber to the Data --- \n        id_to_AID[_tokenIdTracker.current()] = AID({\n            name: a_name,\n            uid: a_uid,\n            eid: a_eid,\n            exchange: a_exchange,\n            expiry: a_expiry\n        });\n        \n        _safeMint(msg.sender, _tokenIdTracker.current());\n        _tokenIdTracker.increment();\n    }\n\n\n    /**\n     * @dev Creates a timestamp of minted NFID.\n     *\n     * Requirements\n     * ------------\n     * none.\n     *\n     *\n     * Parameters\n     * ----------\n     * timestamp : uint\n     *      - The block timestep at the time this method should be called.\n     */\n    function timestampToDate(uint timestamp) public pure returns (uint16 year, uint8 month, uint8 day) {\n        uint z = timestamp / 86400 + 719468;\n        uint era = (z >= 0 ? z : z - 146096) / 146097;\n        uint doe = z - era * 146097;\n        uint yoe = (doe - doe/1460 + doe/36524 - doe/146096) / 365;\n        uint doy = doe - (365*yoe + yoe/4 - yoe/100);\n        uint mp = (5*doy + 2)/153;\n\n        day = uint8(doy - (153*mp+2)/5 + 1);\n        month = mp < 10 ? uint8(mp + 3) : uint8(mp - 9);\n        year = uint16(yoe + era * 400 + (month <= 2 ? 1 : 0));\n    }\n\n\n    // --- OVERIDE PUBLIC ---\n    /**\n     * @dev See {IERC165-supportsInterface}.\n     */\n    function supportsInterface(bytes4 interfaceId)\n        public\n        view\n        virtual\n        override(AccessControlEnumerable, ERC721, ERC721Enumerable)\n        returns (bool)\n    {\n        return super.supportsInterface(interfaceId);\n    }\n\n\n    // --- PRIVATE FUNCTIONS ---\n    /**\n     * @dev Unpauses all token transfers.\n     *\n     * See {ERC721Pausable} and {Pausable-_unpause}.\n     *\n     * Requirements:\n     *\n     * - the caller must have the `PAUSER_ROLE`.\n     */\n    function unpause() public virtual {\n        require(hasRole(PAUSER_ROLE, _msgSender()), \"ERC721PresetMinterPauserAutoId: must have pauser role to unpause\");\n        _unpause();\n    }\n\n    function _beforeTokenTransfer(\n        address from,\n        address to,\n        uint256 tokenId\n    ) internal virtual override(ERC721, ERC721Enumerable, ERC721Pausable) {\n        super._beforeTokenTransfer(from, to, tokenId);\n    }\n\n\n    /**\n        ==============================\n        |   NFID SPECIFIC FUNTIONS   |\n        ==============================\n\n\n        TODO: Add isValidAid()  - This function could use Chainlink (recommended) to bring in the current date, \n                                  or the function could take in what the current date it is (not recommended).\n        TODO: Add getExchange() - Returns the exchange of a user's KYC.\n        TODO: Add getUid()      - Returns AID user ID.\n        TODO: Add getEid()      - Returns the User's exchange ID.\n     */\n\n    function getExpiry(\n        uint256 _tokenId\n    ) public view\n      returns (uint8 day, uint8 month, uint16 year)\n    {\n        AID memory user_aid = id_to_AID[_tokenId];\n        Date memory user_date = user_aid.expiry;\n\n        return (user_date.day, user_date.month, user_date.year);\n    }\n\n}",
  "sourcePath": "/home/karl/Documents/SoftwareDevelopment/GitHub/coinbase-login/truffle/contracts/AtlanticId.sol",
  "compiler": {
    "name": "solc",
    "version": "0.8.11+commit.d7f03943.Emscripten.clang"
  },
  "schemaVersion": "3.4.3",
  "updatedAt": "2022-02-14T18:10:03.839Z",
  "networkType": "ethereum",
  "devdoc": {
    "kind": "dev",
    "methods": {
      "approve(address,uint256)": {
        "details": "See {IERC721-approve}."
      },
      "balanceOf(address)": {
        "details": "See {IERC721-balanceOf}."
      },
      "burn(uint256)": {
        "details": "Burns `tokenId`. See {ERC721-_burn}. Requirements: - The caller must own `tokenId` or be an approved operator."
      },
      "getApproved(uint256)": {
        "details": "See {IERC721-getApproved}."
      },
      "getRoleAdmin(bytes32)": {
        "details": "Returns the admin role that controls `role`. See {grantRole} and {revokeRole}. To change a role's admin, use {_setRoleAdmin}."
      },
      "getRoleMember(bytes32,uint256)": {
        "details": "Returns one of the accounts that have `role`. `index` must be a value between 0 and {getRoleMemberCount}, non-inclusive. Role bearers are not sorted in any particular way, and their ordering may change at any point. WARNING: When using {getRoleMember} and {getRoleMemberCount}, make sure you perform all queries on the same block. See the following https://forum.openzeppelin.com/t/iterating-over-elements-on-enumerableset-in-openzeppelin-contracts/2296[forum post] for more information."
      },
      "getRoleMemberCount(bytes32)": {
        "details": "Returns the number of accounts that have `role`. Can be used together with {getRoleMember} to enumerate all bearers of a role."
      },
      "grantRole(bytes32,address)": {
        "details": "Grants `role` to `account`. If `account` had not been already granted `role`, emits a {RoleGranted} event. Requirements: - the caller must have ``role``'s admin role."
      },
      "hasRole(bytes32,address)": {
        "details": "Returns `true` if `account` has been granted `role`."
      },
      "isApprovedForAll(address,address)": {
        "details": "See {IERC721-isApprovedForAll}."
      },
      "mint(string,string,string,string)": {
        "details": "Unpauses all token transfers. See {ERC721Pausable} and {Pausable-_unpause}. Requirements: - the caller must have the `PAUSER_ROLE`."
      },
      "name()": {
        "details": "See {IERC721Metadata-name}."
      },
      "ownerOf(uint256)": {
        "details": "See {IERC721-ownerOf}."
      },
      "paused()": {
        "details": "Returns true if the contract is paused, and false otherwise."
      },
      "renounceRole(bytes32,address)": {
        "details": "Revokes `role` from the calling account. Roles are often managed via {grantRole} and {revokeRole}: this function's purpose is to provide a mechanism for accounts to lose their privileges if they are compromised (such as when a trusted device is misplaced). If the calling account had been revoked `role`, emits a {RoleRevoked} event. Requirements: - the caller must be `account`."
      },
      "revokeRole(bytes32,address)": {
        "details": "Revokes `role` from `account`. If `account` had been granted `role`, emits a {RoleRevoked} event. Requirements: - the caller must have ``role``'s admin role."
      },
      "safeTransferFrom(address,address,uint256)": {
        "details": "See {IERC721-safeTransferFrom}."
      },
      "safeTransferFrom(address,address,uint256,bytes)": {
        "details": "See {IERC721-safeTransferFrom}."
      },
      "setApprovalForAll(address,bool)": {
        "details": "See {IERC721-setApprovalForAll}."
      },
      "supportsInterface(bytes4)": {
        "details": "See {IERC165-supportsInterface}."
      },
      "symbol()": {
        "details": "See {IERC721Metadata-symbol}."
      },
      "timestampToDate(uint256)": {
        "details": "Creates a timestamp of minted NFID. Requirements ------------ none. Parameters ---------- timestamp : uint      - The block timestep at the time this method should be called."
      },
      "tokenByIndex(uint256)": {
        "details": "See {IERC721Enumerable-tokenByIndex}."
      },
      "tokenOfOwnerByIndex(address,uint256)": {
        "details": "See {IERC721Enumerable-tokenOfOwnerByIndex}."
      },
      "tokenURI(uint256)": {
        "details": "See {IERC721Metadata-tokenURI}."
      },
      "totalSupply()": {
        "details": "See {IERC721Enumerable-totalSupply}."
      },
      "transferFrom(address,address,uint256)": {
        "details": "See {IERC721-transferFrom}."
      },
      "unpause()": {
        "details": "Unpauses all token transfers. See {ERC721Pausable} and {Pausable-_unpause}. Requirements: - the caller must have the `PAUSER_ROLE`."
      }
    },
    "version": 1
  },
  "userdoc": {
    "kind": "user",
    "methods": {
      "MINTER_ROLE()": {
        "notice": "--- USER ROLES --- "
      },
      "getExpiry(uint256)": {
        "notice": "============================== |   NFID SPECIFIC FUNTIONS   | ============================== TODO: Add isValidAid()  - This function could use Chainlink (recommended) to bring in the current date,  or the function could take in what the current date it is (not recommended). TODO: Add getExchange() - Returns the exchange of a user's KYC. TODO: Add getUid()      - Returns AID user ID. TODO: Add getEid()      - Returns the User's exchange ID."
      }
    },
    "version": 1
  }
}