{
  "contractName": "DateTime",
  "abi": [
    {
      "inputs": [
        {
          "internalType": "uint16",
          "name": "year",
          "type": "uint16"
        }
      ],
      "name": "isLeapYear",
      "outputs": [
        {
          "internalType": "bool",
          "name": "",
          "type": "bool"
        }
      ],
      "stateMutability": "pure",
      "type": "function"
    },
    {
      "inputs": [
        {
          "internalType": "uint256",
          "name": "year",
          "type": "uint256"
        }
      ],
      "name": "leapYearsBefore",
      "outputs": [
        {
          "internalType": "uint256",
          "name": "",
          "type": "uint256"
        }
      ],
      "stateMutability": "pure",
      "type": "function"
    },
    {
      "inputs": [
        {
          "internalType": "uint8",
          "name": "month",
          "type": "uint8"
        },
        {
          "internalType": "uint16",
          "name": "year",
          "type": "uint16"
        }
      ],
      "name": "getDaysInMonth",
      "outputs": [
        {
          "internalType": "uint8",
          "name": "",
          "type": "uint8"
        }
      ],
      "stateMutability": "pure",
      "type": "function"
    },
    {
      "inputs": [
        {
          "internalType": "uint256",
          "name": "timestamp",
          "type": "uint256"
        }
      ],
      "name": "getYear",
      "outputs": [
        {
          "internalType": "uint16",
          "name": "",
          "type": "uint16"
        }
      ],
      "stateMutability": "pure",
      "type": "function"
    },
    {
      "inputs": [
        {
          "internalType": "uint256",
          "name": "timestamp",
          "type": "uint256"
        }
      ],
      "name": "getMonth",
      "outputs": [
        {
          "internalType": "uint8",
          "name": "",
          "type": "uint8"
        }
      ],
      "stateMutability": "pure",
      "type": "function"
    },
    {
      "inputs": [
        {
          "internalType": "uint256",
          "name": "timestamp",
          "type": "uint256"
        }
      ],
      "name": "getDay",
      "outputs": [
        {
          "internalType": "uint8",
          "name": "",
          "type": "uint8"
        }
      ],
      "stateMutability": "pure",
      "type": "function"
    },
    {
      "inputs": [
        {
          "internalType": "uint256",
          "name": "timestamp",
          "type": "uint256"
        }
      ],
      "name": "getHour",
      "outputs": [
        {
          "internalType": "uint8",
          "name": "",
          "type": "uint8"
        }
      ],
      "stateMutability": "pure",
      "type": "function"
    },
    {
      "inputs": [
        {
          "internalType": "uint256",
          "name": "timestamp",
          "type": "uint256"
        }
      ],
      "name": "getMinute",
      "outputs": [
        {
          "internalType": "uint8",
          "name": "",
          "type": "uint8"
        }
      ],
      "stateMutability": "pure",
      "type": "function"
    },
    {
      "inputs": [
        {
          "internalType": "uint256",
          "name": "timestamp",
          "type": "uint256"
        }
      ],
      "name": "getSecond",
      "outputs": [
        {
          "internalType": "uint8",
          "name": "",
          "type": "uint8"
        }
      ],
      "stateMutability": "pure",
      "type": "function"
    },
    {
      "inputs": [
        {
          "internalType": "uint256",
          "name": "timestamp",
          "type": "uint256"
        }
      ],
      "name": "getWeekday",
      "outputs": [
        {
          "internalType": "uint8",
          "name": "",
          "type": "uint8"
        }
      ],
      "stateMutability": "pure",
      "type": "function"
    },
    {
      "inputs": [
        {
          "internalType": "uint16",
          "name": "year",
          "type": "uint16"
        },
        {
          "internalType": "uint8",
          "name": "month",
          "type": "uint8"
        },
        {
          "internalType": "uint8",
          "name": "day",
          "type": "uint8"
        },
        {
          "internalType": "uint8",
          "name": "hour",
          "type": "uint8"
        },
        {
          "internalType": "uint8",
          "name": "minute",
          "type": "uint8"
        }
      ],
      "name": "toTimestamp",
      "outputs": [
        {
          "internalType": "uint256",
          "name": "timestamp",
          "type": "uint256"
        }
      ],
      "stateMutability": "pure",
      "type": "function"
    },
    {
      "inputs": [
        {
          "internalType": "uint16",
          "name": "year",
          "type": "uint16"
        },
        {
          "internalType": "uint8",
          "name": "month",
          "type": "uint8"
        },
        {
          "internalType": "uint8",
          "name": "day",
          "type": "uint8"
        },
        {
          "internalType": "uint8",
          "name": "hour",
          "type": "uint8"
        }
      ],
      "name": "toTimestamp",
      "outputs": [
        {
          "internalType": "uint256",
          "name": "timestamp",
          "type": "uint256"
        }
      ],
      "stateMutability": "pure",
      "type": "function"
    },
    {
      "inputs": [
        {
          "internalType": "uint16",
          "name": "year",
          "type": "uint16"
        },
        {
          "internalType": "uint8",
          "name": "month",
          "type": "uint8"
        },
        {
          "internalType": "uint8",
          "name": "day",
          "type": "uint8"
        }
      ],
      "name": "toTimestamp",
      "outputs": [
        {
          "internalType": "uint256",
          "name": "timestamp",
          "type": "uint256"
        }
      ],
      "stateMutability": "pure",
      "type": "function"
    },
    {
      "inputs": [
        {
          "internalType": "uint16",
          "name": "year",
          "type": "uint16"
        },
        {
          "internalType": "uint8",
          "name": "month",
          "type": "uint8"
        },
        {
          "internalType": "uint8",
          "name": "day",
          "type": "uint8"
        },
        {
          "internalType": "uint8",
          "name": "hour",
          "type": "uint8"
        },
        {
          "internalType": "uint8",
          "name": "minute",
          "type": "uint8"
        },
        {
          "internalType": "uint8",
          "name": "second",
          "type": "uint8"
        }
      ],
      "name": "toTimestamp",
      "outputs": [
        {
          "internalType": "uint256",
          "name": "timestamp",
          "type": "uint256"
        }
      ],
      "stateMutability": "pure",
      "type": "function"
    }
  ],
  "bytecode": "0x611415610053600b82828239805160001a607314610046577f4e487b7100000000000000000000000000000000000000000000000000000000600052600060045260246000fd5b30600052607381538281f3fe7300000000000000000000000000000000000000003014608060405260043610610111576000357c0100000000000000000000000000000000000000000000000000000000900480639054bdec116100b3578063a6f0e5771161008d578063a6f0e577146102f6578063b199993714610326578063b238ad0e14610356578063fa93f8831461038657610111565b80639054bdec1461026657806392d6631314610296578063a324ad24146102c657610111565b806365c72840116100ef57806365c72840146101a65780637f791833146101d65780638aa001fc146102065780638c8d98a01461023657610111565b80633e239e1a146101165780634ac1ad781461014657806362ba968714610176575b600080fd5b610130600480360381019061012b9190610d9b565b6103b6565b60405161013d9190610de4565b60405180910390f35b610160600480360381019061015b9190610d9b565b6103e3565b60405161016d9190610de4565b60405180910390f35b610190600480360381019061018b9190610e65565b610413565b60405161019d9190610eef565b60405180910390f35b6101c060048036038101906101bb9190610d9b565b61042f565b6040516101cd9190610de4565b60405180910390f35b6101f060048036038101906101eb9190610f0a565b610445565b6040516101fd9190610eef565b60405180910390f35b610220600480360381019061021b9190610d9b565b610460565b60405161022d9190610de4565b60405180910390f35b610250600480360381019061024b9190610f71565b610476565b60405161025d9190610eef565b60405180910390f35b610280600480360381019061027b9190610fc4565b610491565b60405161028d9190610eef565b60405180910390f35b6102b060048036038101906102ab9190610d9b565b6107fc565b6040516102bd9190611060565b60405180910390f35b6102e060048036038101906102db9190610d9b565b610913565b6040516102ed9190610de4565b60405180910390f35b610310600480360381019061030b919061107b565b610929565b60405161031d91906110c3565b60405180910390f35b610340600480360381019061033b9190610d9b565b610998565b60405161034d9190610eef565b60405180910390f35b610370600480360381019061036b91906110de565b6109ec565b60405161037d9190610de4565b60405180910390f35b6103a0600480360381019061039b9190610d9b565b610ab8565b6040516103ad9190610de4565b60405180910390f35b60006018603c80846103c8919061117c565b6103d2919061117c565b6103dc91906111ad565b9050919050565b60006007600462015180846103f8919061117c565b61040291906111de565b61040c91906111ad565b9050919050565b600061042486868686866000610491565b905095945050505050565b600061043a82610ad9565b604001519050919050565b600061045685858585600080610491565b9050949350505050565b6000603c8261046f91906111ad565b9050919050565b60006104888484846000806000610491565b90509392505050565b6000806107b290505b8761ffff168161ffff1610156104f5576104b381610929565b156104cf576301e28500826104c891906111de565b91506104e2565b6301e13380826104df91906111de565b91505b80806104ed90611234565b91505061049a565b6104fd610cea565b601f816000600c81106105135761051261125f565b5b602002019060ff16908160ff168152505061052d89610929565b1561055e57601d816001600c81106105485761054761125f565b5b602002019060ff16908160ff1681525050610586565b601c816001600c81106105745761057361125f565b5b602002019060ff16908160ff16815250505b601f816002600c811061059c5761059b61125f565b5b602002019060ff16908160ff1681525050601e816003600c81106105c3576105c261125f565b5b602002019060ff16908160ff1681525050601f816004600c81106105ea576105e961125f565b5b602002019060ff16908160ff1681525050601e816005600c81106106115761061061125f565b5b602002019060ff16908160ff1681525050601f816006600c81106106385761063761125f565b5b602002019060ff16908160ff1681525050601f816007600c811061065f5761065e61125f565b5b602002019060ff16908160ff1681525050601e816008600c81106106865761068561125f565b5b602002019060ff16908160ff1681525050601f816009600c81106106ad576106ac61125f565b5b602002019060ff16908160ff1681525050601e81600a600c81106106d4576106d361125f565b5b602002019060ff16908160ff1681525050601f81600b600c81106106fb576106fa61125f565b5b602002019060ff16908160ff1681525050600191505b8760ff168261ffff161015610779578060018361072e919061128e565b61ffff16600c81106107435761074261125f565b5b602002015160ff166201518061075991906112c2565b8361076491906111de565b9250818061077190611234565b925050610711565b600187610786919061131c565b60ff166201518061079791906112c2565b836107a291906111de565b92508560ff16610e106107b591906112c2565b836107c091906111de565b92508460ff16603c6107d291906112c2565b836107dd91906111de565b92508360ff16836107ee91906111de565b925050509695505050505050565b600080600090506000806301e1338085610816919061117c565b6107b261ffff1661082791906111de565b91506108386107b261ffff16610998565b6108458361ffff16610998565b61084f9190611350565b9050806301e2850061086191906112c2565b8361086c91906111de565b9250806107b28361087d919061128e565b61ffff1661088b9190611350565b6301e1338061089a91906112c2565b836108a591906111de565b92505b84831115610908576108c56001836108c0919061128e565b610929565b156108e1576301e28500836108da9190611350565b92506108f4565b6301e13380836108f19190611350565b92505b600182610901919061128e565b91506108a8565b819350505050919050565b600061091e82610ad9565b602001519050919050565b6000806004836109399190611384565b61ffff161461094b5760009050610993565b600060648361095a9190611384565b61ffff161461096c5760019050610993565b60006101908361097c9190611384565b61ffff161461098e5760009050610993565b600190505b919050565b60006001826109a79190611350565b9150610190826109b7919061117c565b6064836109c4919061117c565b6004846109d1919061117c565b6109db9190611350565b6109e591906111de565b9050919050565b600060018360ff161480610a03575060038360ff16145b80610a11575060058360ff16145b80610a1f575060078360ff16145b80610a2d575060088360ff16145b80610a3b5750600a8360ff16145b80610a495750600c8360ff16145b15610a5757601f9050610ab2565b60048360ff161480610a6c575060068360ff16145b80610a7a575060098360ff16145b80610a885750600b8360ff16145b15610a9657601e9050610ab2565b610a9f82610929565b15610aad57601d9050610ab2565b601c90505b92915050565b6000603c8083610ac8919061117c565b610ad291906111ad565b9050919050565b610ae1610d0d565b60008080610aee856107fc565b846000019061ffff16908161ffff1681525050610b106107b261ffff16610998565b610b21856000015161ffff16610998565b610b2b9190611350565b9150816301e28500610b3d91906112c2565b83610b4891906111de565b9250816107b28560000151610b5d919061128e565b61ffff16610b6b9190611350565b6301e13380610b7a91906112c2565b83610b8591906111de565b92506000600191505b600c8260ff1611610c0557610ba78286600001516109ec565b60ff1662015180610bb891906112c2565b9050858482610bc791906111de565b1115610be45781856020019060ff16908160ff1681525050610c05565b8084610bf091906111de565b93508180610bfd906113b5565b925050610b8e565b600191505b610c1c856020015186600001516109ec565b60ff168260ff1611610c7957858462015180610c3891906111de565b1115610c555781856040019060ff16908160ff1681525050610c79565b6201518084610c6491906111de565b93508180610c71906113b5565b925050610c0a565b610c82866103b6565b856060019060ff16908160ff1681525050610c9c86610ab8565b856080019060ff16908160ff1681525050610cb686610460565b8560a0019060ff16908160ff1681525050610cd0866103e3565b8560c0019060ff16908160ff168152505050505050919050565b604051806101800160405280600c90602082028036833780820191505090505090565b6040518060e00160405280600061ffff168152602001600060ff168152602001600060ff168152602001600060ff168152602001600060ff168152602001600060ff168152602001600060ff1681525090565b600080fd5b6000819050919050565b610d7881610d65565b8114610d8357600080fd5b50565b600081359050610d9581610d6f565b92915050565b600060208284031215610db157610db0610d60565b5b6000610dbf84828501610d86565b91505092915050565b600060ff82169050919050565b610dde81610dc8565b82525050565b6000602082019050610df96000830184610dd5565b92915050565b600061ffff82169050919050565b610e1681610dff565b8114610e2157600080fd5b50565b600081359050610e3381610e0d565b92915050565b610e4281610dc8565b8114610e4d57600080fd5b50565b600081359050610e5f81610e39565b92915050565b600080600080600060a08688031215610e8157610e80610d60565b5b6000610e8f88828901610e24565b9550506020610ea088828901610e50565b9450506040610eb188828901610e50565b9350506060610ec288828901610e50565b9250506080610ed388828901610e50565b9150509295509295909350565b610ee981610d65565b82525050565b6000602082019050610f046000830184610ee0565b92915050565b60008060008060808587031215610f2457610f23610d60565b5b6000610f3287828801610e24565b9450506020610f4387828801610e50565b9350506040610f5487828801610e50565b9250506060610f6587828801610e50565b91505092959194509250565b600080600060608486031215610f8a57610f89610d60565b5b6000610f9886828701610e24565b9350506020610fa986828701610e50565b9250506040610fba86828701610e50565b9150509250925092565b60008060008060008060c08789031215610fe157610fe0610d60565b5b6000610fef89828a01610e24565b965050602061100089828a01610e50565b955050604061101189828a01610e50565b945050606061102289828a01610e50565b935050608061103389828a01610e50565b92505060a061104489828a01610e50565b9150509295509295509295565b61105a81610dff565b82525050565b60006020820190506110756000830184611051565b92915050565b60006020828403121561109157611090610d60565b5b600061109f84828501610e24565b91505092915050565b60008115159050919050565b6110bd816110a8565b82525050565b60006020820190506110d860008301846110b4565b92915050565b600080604083850312156110f5576110f4610d60565b5b600061110385828601610e50565b925050602061111485828601610e24565b9150509250929050565b7f4e487b7100000000000000000000000000000000000000000000000000000000600052601260045260246000fd5b7f4e487b7100000000000000000000000000000000000000000000000000000000600052601160045260246000fd5b600061118782610d65565b915061119283610d65565b9250826111a2576111a161111e565b5b828204905092915050565b60006111b882610d65565b91506111c383610d65565b9250826111d3576111d261111e565b5b828206905092915050565b60006111e982610d65565b91506111f483610d65565b9250827fffffffffffffffffffffffffffffffffffffffffffffffffffffffffffffffff038211156112295761122861114d565b5b828201905092915050565b600061123f82610dff565b915061ffff8214156112545761125361114d565b5b600182019050919050565b7f4e487b7100000000000000000000000000000000000000000000000000000000600052603260045260246000fd5b600061129982610dff565b91506112a483610dff565b9250828210156112b7576112b661114d565b5b828203905092915050565b60006112cd82610d65565b91506112d883610d65565b9250817fffffffffffffffffffffffffffffffffffffffffffffffffffffffffffffffff04831182151516156113115761131061114d565b5b828202905092915050565b600061132782610dc8565b915061133283610dc8565b9250828210156113455761134461114d565b5b828203905092915050565b600061135b82610d65565b915061136683610d65565b9250828210156113795761137861114d565b5b828203905092915050565b600061138f82610dff565b915061139a83610dff565b9250826113aa576113a961111e565b5b828206905092915050565b60006113c082610dc8565b915060ff8214156113d4576113d361114d565b5b60018201905091905056fea2646970667358221220f5e6416f66a2057d0d26b6b405cb4227a034a8964db21e3fe71ce1e0b2f9d0e564736f6c634300080b0033",
  "immutableReferences": {},
  "source": "// SPDX-License-Identifier: MIT\npragma solidity ^0.8.0;\n\nlibrary DateTime {\n        /*\n         *  Date and Time utilities for ethereum contracts\n         *\n         */\n        struct _DateTime {\n                uint16 year;\n                uint8 month;\n                uint8 day;\n                uint8 hour;\n                uint8 minute;\n                uint8 second;\n                uint8 weekday;\n        }\n\n        uint constant DAY_IN_SECONDS = 86400;\n        uint constant YEAR_IN_SECONDS = 31536000;\n        uint constant LEAP_YEAR_IN_SECONDS = 31622400;\n\n        uint constant HOUR_IN_SECONDS = 3600;\n        uint constant MINUTE_IN_SECONDS = 60;\n\n        uint16 constant ORIGIN_YEAR = 1970;\n\n        function isLeapYear(uint16 year) public pure returns (bool) {\n                if (year % 4 != 0) {\n                        return false;\n                }\n                if (year % 100 != 0) {\n                        return true;\n                }\n                if (year % 400 != 0) {\n                        return false;\n                }\n                return true;\n        }\n\n        function leapYearsBefore(uint year) public pure returns (uint) {\n                year -= 1;\n                return year / 4 - year / 100 + year / 400;\n        }\n\n        function getDaysInMonth(uint8 month, uint16 year) public pure returns (uint8) {\n                if (month == 1 || month == 3 || month == 5 || month == 7 || month == 8 || month == 10 || month == 12) {\n                        return 31;\n                }\n                else if (month == 4 || month == 6 || month == 9 || month == 11) {\n                        return 30;\n                }\n                else if (isLeapYear(year)) {\n                        return 29;\n                }\n                else {\n                        return 28;\n                }\n        }\n\n        function parseTimestamp(uint timestamp) internal pure returns (_DateTime memory dt) {\n                uint secondsAccountedFor = 0;\n                uint buf;\n                uint8 i;\n\n                // Year\n                dt.year = getYear(timestamp);\n                buf = leapYearsBefore(dt.year) - leapYearsBefore(ORIGIN_YEAR);\n\n                secondsAccountedFor += LEAP_YEAR_IN_SECONDS * buf;\n                secondsAccountedFor += YEAR_IN_SECONDS * (dt.year - ORIGIN_YEAR - buf);\n\n                // Month\n                uint secondsInMonth;\n                for (i = 1; i <= 12; i++) {\n                        secondsInMonth = DAY_IN_SECONDS * getDaysInMonth(i, dt.year);\n                        if (secondsInMonth + secondsAccountedFor > timestamp) {\n                                dt.month = i;\n                                break;\n                        }\n                        secondsAccountedFor += secondsInMonth;\n                }\n\n                // Day\n                for (i = 1; i <= getDaysInMonth(dt.month, dt.year); i++) {\n                        if (DAY_IN_SECONDS + secondsAccountedFor > timestamp) {\n                                dt.day = i;\n                                break;\n                        }\n                        secondsAccountedFor += DAY_IN_SECONDS;\n                }\n\n                // Hour\n                dt.hour = getHour(timestamp);\n\n                // Minute\n                dt.minute = getMinute(timestamp);\n\n                // Second\n                dt.second = getSecond(timestamp);\n\n                // Day of week.\n                dt.weekday = getWeekday(timestamp);\n        }\n\n        function getYear(uint timestamp) public pure returns (uint16) {\n                uint secondsAccountedFor = 0;\n                uint16 year;\n                uint numLeapYears;\n\n                // Year\n                year = uint16(ORIGIN_YEAR + timestamp / YEAR_IN_SECONDS);\n                numLeapYears = leapYearsBefore(year) - leapYearsBefore(ORIGIN_YEAR);\n\n                secondsAccountedFor += LEAP_YEAR_IN_SECONDS * numLeapYears;\n                secondsAccountedFor += YEAR_IN_SECONDS * (year - ORIGIN_YEAR - numLeapYears);\n\n                while (secondsAccountedFor > timestamp) {\n                        if (isLeapYear(uint16(year - 1))) {\n                                secondsAccountedFor -= LEAP_YEAR_IN_SECONDS;\n                        }\n                        else {\n                                secondsAccountedFor -= YEAR_IN_SECONDS;\n                        }\n                        year -= 1;\n                }\n                return year;\n        }\n\n        function getMonth(uint timestamp) public pure returns (uint8) {\n                return parseTimestamp(timestamp).month;\n        }\n\n        function getDay(uint timestamp) public pure returns (uint8) {\n                return parseTimestamp(timestamp).day;\n        }\n\n        function getHour(uint timestamp) public pure returns (uint8) {\n                return uint8((timestamp / 60 / 60) % 24);\n        }\n\n        function getMinute(uint timestamp) public pure returns (uint8) {\n                return uint8((timestamp / 60) % 60);\n        }\n\n        function getSecond(uint timestamp) public pure returns (uint8) {\n                return uint8(timestamp % 60);\n        }\n\n        function getWeekday(uint timestamp) public pure returns (uint8) {\n                return uint8((timestamp / DAY_IN_SECONDS + 4) % 7);\n        }\n\n        function toTimestamp(uint16 year, uint8 month, uint8 day) public pure returns (uint timestamp) {\n                return toTimestamp(year, month, day, 0, 0, 0);\n        }\n\n        function toTimestamp(uint16 year, uint8 month, uint8 day, uint8 hour) public pure returns (uint timestamp) {\n                return toTimestamp(year, month, day, hour, 0, 0);\n        }\n\n        function toTimestamp(uint16 year, uint8 month, uint8 day, uint8 hour, uint8 minute) public pure returns (uint timestamp) {\n                return toTimestamp(year, month, day, hour, minute, 0);\n        }\n\n        function toTimestamp(uint16 year, uint8 month, uint8 day, uint8 hour, uint8 minute, uint8 second) public pure returns (uint timestamp) {\n                uint16 i;\n\n                // Year\n                for (i = ORIGIN_YEAR; i < year; i++) {\n                        if (isLeapYear(i)) {\n                                timestamp += LEAP_YEAR_IN_SECONDS;\n                        }\n                        else {\n                                timestamp += YEAR_IN_SECONDS;\n                        }\n                }\n\n                // Month\n                uint8[12] memory monthDayCounts;\n                monthDayCounts[0] = 31;\n                if (isLeapYear(year)) {\n                        monthDayCounts[1] = 29;\n                }\n                else {\n                        monthDayCounts[1] = 28;\n                }\n                monthDayCounts[2] = 31;\n                monthDayCounts[3] = 30;\n                monthDayCounts[4] = 31;\n                monthDayCounts[5] = 30;\n                monthDayCounts[6] = 31;\n                monthDayCounts[7] = 31;\n                monthDayCounts[8] = 30;\n                monthDayCounts[9] = 31;\n                monthDayCounts[10] = 30;\n                monthDayCounts[11] = 31;\n\n                for (i = 1; i < month; i++) {\n                        timestamp += DAY_IN_SECONDS * monthDayCounts[i - 1];\n                }\n\n                // Day\n                timestamp += DAY_IN_SECONDS * (day - 1);\n\n                // Hour\n                timestamp += HOUR_IN_SECONDS * (hour);\n\n                // Minute\n                timestamp += MINUTE_IN_SECONDS * (minute);\n\n                // Second\n                timestamp += second;\n\n                return timestamp;\n        }\n}",
  "sourcePath": "/home/karl/Documents/SoftwareDevelopment/GitHub/coinbase-login/truffle/contracts/DateTime.sol",
  "compiler": {
    "name": "solc",
    "version": "0.8.11+commit.d7f03943.Emscripten.clang"
  },
  "schemaVersion": "3.4.3",
  "updatedAt": "2022-02-14T17:19:54.694Z",
  "devdoc": {
    "kind": "dev",
    "methods": {},
    "version": 1
  },
  "userdoc": {
    "kind": "user",
    "methods": {},
    "version": 1
  }
}